:100000000C94E9000C9411010C9411010C94110151
:100010000C9411010C9411010C9411010C94110118
:100020000C9411010C9411010C9411010C94110108
:100030000C9411010C9411010C9411010C941101F8
:100040000C94D31A0C9411010C94AB1A0C9411015A
:100050000C9411010C9411010C9411010C941101D8
:100060000C9411010C941101626175642C65736329
:100070006170652C657363232C6D6F64652C7665E8
:1000800072622C6563686F2C69676E6F7265525877
:1000900000006572726F722077726974696E6720F2
:1000A000746F2066696C6500256C642C25642C25B2
:1000B000642C25642C25642C25642C2564000052B6
:1000C000656D6F766520636F6E666967206661692E
:1000D0006C656400636F6E6669672E747874006384
:1000E0006F6E6669672E747874003C004572726F9B
:1000F00072206372656174696E67205345514C4F7D
:10010000470A005345514C4F4730302E5458540045
:1001100021546F6F206D616E79206C6F67733A3276
:1001200021004C4F47253035642E5458540021543B
:100130006F6F206D616E79206C6F67733A312100AB
:100140003200310066696C652E6F70656E00726FEB
:100150006F742E696E697400766F6C756D652E69AB
:100160006E697400636172642E696E697400457211
:10017000726F7220000000000800020100000304FA
:1001800007000000000000000001020408102040E9
:100190008001020408102001020408102004040455
:1001A0000404040404020202020202030303030320
:1001B00003000000002300260029000000000025A5
:1001C0000028002B0000000000240027002A000067
:1001D000B10811241FBECFEFD8E0DEBFCDBF11E0C4
:1001E000A0E0B1E0ECE7F0E402C005900D92AA3285
:1001F000B107D9F727E0AAE2B1E001C01D92AA3009
:10020000B207E1F711E0C2EDD1E004C02297FE0190
:100210000E94FF1CC03DD107C9F70E94711C0C94BD
:100220003C200C9400008091C00085FFFCCF6093BF
:10023000C60081E090E00895CF92DF92EF92FF92A6
:100240000F931F93CF93DF938C017A01EB016B0126
:10025000C40ED51ECC15DD0551F06991D801ED9184
:10026000FC910190F081E02DC8010995F3CFC70101
:10027000DF91CF911F910F91FF90EF90DF90CF9082
:100280000895089504960C94870DCF93DF931F92E1
:10029000CDB7DEB7BE016F5F7F4F89EF96E00E945A
:1002A000101A882319F0898190E002C08FEF9FEF28
:1002B0000F90DF91CF91089589EF96E00C94FD198E
:1002C00089EF96E00C947A1A0C94491F0C94511FF4
:1002D000EF92FF920F931F93CF93DF938C017C01DA
:1002E00080E8E80EF11CE801CE15DF0550F0CE01E4
:1002F000801B910BDF91CF911F910F91FF90EF9099
:1003000008952091FB063091FC068091FD069091A6
:10031000FE062817390759F3A7014C1B5D0BBE01D8
:1003200089EF96E00E94311AC80FD91FDDCFCF9216
:10033000DF92EF92FF926B017C011092C10086E088
:100340008093C20060E079E08DE390E0A701960120
:100350000E94D01CC901213060E2360730F4C1147C
:1003600061EED606E104F10431F41092C000C90137
:100370009695879503C022E02093C000019796953B
:1003800087959093C5008093C40088E98093C1004D
:10039000FF90EF90DF90CF900895CF93DF931F925F
:1003A000CDB7DEB7698341E050E0BE016F5F7F4F9C
:1003B00004960E94870D0F90DF91CF910895FB0165
:1003C000242F6091F7067091F806AF010C94020D8E
:1003D0000F931F93CF93DF93EC019A018C01095B7C
:1003E0001D4F835B9D4F462FBC01C8010E945618CC
:1003F000882329F11983088300521109C8010E943A
:10040000F90C61E0CE010E942516882339F0BE0167
:10041000C8010E94D309882391F007C060E0CE0193
:100420000E9425168111F3CF0AC0F80180818077E0
:1004300031F01093F8060093F70681E001C080E0E8
:10044000DF91CF911F910F910895CF92DF92EF929C
:10045000FF920F931F93CF93DF93CDB7DEB7A4978F
:100460000FB6F894DEBF0FBECDBF1D821E821C8268
:100470001B8284E091E09A83898383E090E00E946C
:100480006401F82E84E090E00E9464010F2D10E0DA
:10049000182B9FEFF9120FC08F3F69F460E083E0E3
:1004A00090E00E94660160E084E090E00E946601B6
:1004B00000E010E007C00E3F8FEF180719F46EE25E
:1004C00071E041C042E2E42E41E0F42E5AE2C52E32
:1004D00051E0D52E1F930F93FF92EF92DF92CF92B0
:1004E0000E94551D41E56AE271E0CE0105960E9429
:1004F000DF010F900F900F900F900F900F908111D0
:1005000029C040E06AE271E0CE0105960E94DF0159
:10051000882389F08D8D9E8DAF8DB8A1892B8A2B74
:100520008B2B29F4CE0105960E94F90C29C0CE012F
:1005300005960E94F90C0F5F1F4F0E3F9FEF1907A2
:1005400048F260E171E081E993E00E94801C80E064
:1005500090E018C0CE0105960E94F90C0F5F1F4F66
:10056000602F83E090E00E94660184E090E00E94AA
:100570006401811729F0612F84E090E00E946601F8
:100580008AE291E0A4960FB6F894DEBF0FBECDBF0D
:10059000DF91CF911F910F91FF90EF90DF90CF905F
:1005A0000895C0E0D0E0082F10E0C017D107B4F4E0
:1005B00061E085E00E94111C68EC70E080E090E052
:1005C0000E944C1B60E085E00E94111C68EC70E00A
:1005D00080E090E00E944C1B2196E7CF60ED77E031
:1005E00080E090E00E944C1BC0E0D0E0DECFCF93D3
:1005F000C82F6EE671E081E993E00E94801CC7304D
:1006000069F028F4C630B1F464E671E009C0C8307E
:1006100071F0C93079F464E471E002C068E571E01A
:1006200081E993E00E94801C83E00E94D1026EE485
:1006300071E0F6CFCF910895CF93DF93CDB7DEB7BA
:10064000C45AD1090FB6F894DEBF0FBECDBFCB5749
:10065000DF4F1882C558D040CA57DF4F1882C6589E
:10066000D040CD57DF4F19821882C358D04024E0C4
:1006700031E0CF57DF4F39832883C158D04049E15B
:10068000BC0181E890E08C0F9D1F04960E94DF0161
:10069000811103C089E00E94F702C356DF4F8881B1
:1006A0009981AA81BB81CD59D040892B8A2B8B2B74
:1006B00079F440E050E0BA0101E810E00C0F1D1F92
:1006C0000C5F1F4FC8010E94460BC8010E94A90C75
:1006D0000E941D1B6B017C016AEE70E081E993E0D2
:1006E0000E94801C61E085E00E94111C01E810E07E
:1006F0000C0F1D1F0C5F1F4F60E2B62ECE0101963E
:100700000E9468018823B1F0CF57DF4FE881F9815B
:10071000C158D040AC0155270280F381E02DBE01C5
:100720006F5F7F4FCE018F579F4F09958BB18B2500
:100730008BB9E4CF0E941D1B6C197D098E099F099E
:10074000653F714081059105C8F2C8010E94A90C5E
:100750005D98809164008062809364008091640061
:1007600084608093640083B7816083BF889583B77A
:100770008E7F83BF809164008B7F80936400809123
:1007800064008F7D809364000E941D1B6B017C01BF
:10079000B5CFCF93DF93CDB7DEB7E0970FB6F89420
:1007A000DEBF0FBECDBF1D821E821C821B8284E075
:1007B00091E09A83898363E071E0CE0185960E947F
:1007C000301D41E1BE016B5D7F4FCE0105960E9459
:1007D000DF0181110FC06CEE70E081E993E00E94AF
:1007E000801CE0960FB6F894DEBF0FBECDBFDF9140
:1007F000CF910895CE0105960E94F90CCE01859601
:100800000E941C0380913C01811104C00E942502BA
:100810000E941C03813009F0FFCF0E94C903FCCF66
:10082000CF92DF92EF92FF926B017C016E2D89E0F7
:1008300090E00E9466019927F7FC9A958F2D7E2DF6
:100840006D2D8AE090E00E9466016C2D8BE090E0B7
:10085000FF90EF90DF90CF900C94660160E875E216
:1008600080E090E00E94100460E082E090E00E944E
:1008700066016AE185E090E00E94660163E086E03F
:1008800090E00E94660161E087E090E00E946601CE
:1008900061E088E090E00E94660160E08CE090E01A
:1008A0000C946601CF93DF9389E090E00E9464018D
:1008B000C82F8AE090E00E946401D82F8BE090E07E
:1008C0000E9464014D2F50E060E070E0762F652FAC
:1008D000542F4427482B6C2BCB01BA01DF91CF91C9
:1008E00008950F931F930E9452048B019C010C5298
:1008F000114021093109053111442F40310548F4D7
:1009000060933D0170933E0180933F0190934001BD
:1009100012C080E895E2A0E0B0E080933D019093A2
:100920003E01A0933F01B093400160E875E280E092
:1009300090E00E94100482E090E00E946401863002
:1009400018F480933C0107C010923C0160E082E003
:1009500090E00E94660185E090E00E9464019FEFB4
:10096000980F9E3F18F480933B0108C08AE1809362
:100970003B016AE185E090E00E94660186E090E03C
:100980000E94640180933A018F3F41F483E0809399
:100990003A0163E086E090E00E94660187E090E023
:1009A0000E946401823018F48093390108C081E00C
:1009B0008093390161E087E090E00E94660181E068
:1009C0008093380161E088E090E00E9466018CE04D
:1009D00090E00E946401823028F4809337011F91D7
:1009E0000F9108951092370160E08CE090E01F9124
:1009F0000F910C946601BF92CF92DF92EF92FF921B
:100A00000F931F93CF93DF93CDB7DEB7C057D109B4
:100A10000FB6F894DEBF0FBECDBF1EA61FA61DA643
:100A20001CA684E091E09BA78AA788E693E00E9439
:100A3000F90C61E471E088E693E00E94D309882311
:100A400009F4C4C064ED70E0CE018B599F4F0E9441
:100A5000301D41E0BE016B597F4FCE018E960E9442
:100A6000DF01882369F0CE018E960E942410811147
:100A700007C06FEB70E081E993E00E94A91C91C070
:100A800049E1BE016B597F4FCE018E960E94DF0176
:100A90000E945204182F092F85E090E0E0966FAF76
:100AA000E097E1967FAFE1970E946401F82E86E01F
:100AB00090E00E946401E82E82E090E00E946401D0
:100AC000D82E87E090E00E946401C82E88E090E074
:100AD0000E946401B82E8CE090E00E9464011F9295
:100AE0008F931F92BF921F92CF921F92DF921F92FD
:100AF000EF921F92FF920F931F93E1967FADE197C4
:100B00007F93E0966FADE0976F9388EA90E09F93B4
:100B10008F938E01025B1F4F1F930F930E94551DF1
:100B2000F80101900020E9F7AF0141505109401B45
:100B3000510BB801CE018E960E94870DF8010190ED
:100B40000020E9F73197E01BF10B0FB6F894DEBFF8
:100B50000FBECDBF8E179F0731F062E970E081E9CB
:100B600093E00E94A91CCE018A960E94A51C68E60B
:100B700070E08E010F5F1F4FC8010E94301DF80109
:100B800001900020E9F7AF0141505109401B510B82
:100B9000B801CE018E960E94870DCE018E960E94DE
:100BA000A90CCE018E960E94F90CC059DF4F0FB6EA
:100BB000F894DEBF0FBECDBFDF91CF911F910F9193
:100BC000FF90EF90DF90CF90BF90089588E00E9453
:100BD000F70238CFCF93FC0120E030E0A901C191AA
:100BE00080ED8C0F8A3098F4AAE0B0E00E94F21CED
:100BF0002C2F332727FD309520533109442737FD0B
:100C00004095542F260F371F481F591FE8CFCA01A0
:100C1000B901CF9108953F924F925F926F927F9268
:100C20008F929F92AF92BF92CF92DF92EF92FF92FC
:100C30000F931F93CF93DF93CDB7DEB7CE54D10977
:100C40000FB6F894DEBF0FBECDBF1D821E821C8280
:100C50001B8284E091E09A83898388E693E00E9476
:100C6000F90C61E471E088E693E00E94D3098823DF
:100C700009F442C16FED70E0CE01CC960E94301DA8
:100C800040E0BE01645C7F4FCE0105960E94DF010B
:100C9000882341F07E0135E2E30EF11C00E010E014
:100CA000570112C0CE0105960E94F90C22C1279669
:100CB0008FAD279718169CF4F70181937F010F5F82
:100CC0001F4F0731110559F041E050E0BE016A5B4A
:100CD0007F4FCE0105960E94ED09019741F3CE01A9
:100CE00005960E94F90C20E040E0712C9924939421
:100CF0008824839483E0682E9AE1592E312C30E8C1
:100D0000C32E35E2D32EE12CF12C842F90E08017F6
:100D1000910784F080913D0190913E01A0913F01A7
:100D2000B0914001C816D906EA06FB0609F086C054
:100D300080E095C0FE01EA5BFF4F30E0432E440E99
:100D4000842D90E0D501A80FB91F5C915C3241F071
:100D5000801791072CF4363019F051933F5FEECF96
:100D6000E6E4F0E0EC0FFD1FE30FF11D1082CE0171
:100D70008A5B9F4F2F962FAF2F970E94121D2F96A1
:100D80002FAD2F9721111BC0CE018A5B9F4F0E9470
:100D9000EA056B017C01FCE2CF1AF1E0DF0AE10811
:100DA000F1082F962FAD2F9735E1C31631E4D30606
:100DB0003FE0E306F10470F56B017C013BC021309C
:100DC00021F4181674F5582E35C0223021F48F3FC7
:100DD00059F1682E2FC0233031F49FEF980F9230D5
:100DE00030F5382E27C0243031F4882E882311F1B5
:100DF000882483941FC0253031F4982E8823D1F0A5
:100E00009924939417C0263009F084CF823088F457
:100E1000782E10C0B0E8CB2EB5E2DB2EE12CF12C01
:100E200009C0AAE15A2E06C0F3E06F2E03C0312C90
:100E300001C0712C2F5F41E0440D67CFC701B6019F
:100E40000E941004C0923D01D0923E01E0923F0109
:100E5000F0924001C701B6010E94970181E0909194
:100E60003C01391641F030923C01632D82E090E064
:100E70000E94660181E090913B01591641F0509229
:100E80003B01652D85E090E00E94660181E0909134
:100E90003A01691641F060923A01662D86E090E0D1
:100EA0000E94660181E090913901891641F080929B
:100EB0003901682D87E090E00E94660181E0909101
:100EC0003801991641F090923801692D88E090E040
:100ED0000E94660181E090913701791641F070928D
:100EE0003701672D8CE090E00E94660102C08823E4
:100EF00039F00E94FB0404C088E00E94F702BACED9
:100F0000C25BDF4F0FB6F894DEBF0FBECDBFDF91DF
:100F1000CF911F910F91FF90EF90DF90CF90BF90F6
:100F2000AF909F908F907F906F905F904F903F9089
:100F30000895CF93C82F0E94471C892B11F060E0C1
:100F400001C061E08C2FCF910C94111CCF9360E015
:100F500080E00E94D81B61E080E00E94111C80E0CC
:100F60000E94471C019709F46AC00E94160961E0BB
:100F70008DE00E94D81B61E08DE00E94111CC8E248
:100F800069E170E080E090E00E944C1B85E00E94E7
:100F9000990780E00E94471C019709F450C069E15D
:100FA00070E080E090E00E944C1B8DE00E94990769
:100FB00080E00E94471C019709F441C0C15001F72D
:100FC0000E942E0440E550E06AE081E491E00E9436
:100FD000E801811103C086E00E94F70288E693E0F1
:100FE0000E94F90C61E471E088E693E00E94D30965
:100FF000882309F10E94FB040E94160961E085E044
:101000000E94D81B61E08DE00E94D81B61E085E062
:101010000E94111C61E08DE00E94111C64EF71E0E0
:1010200080E090E00E944C1B85E00E9499078DE0D3
:101030000E949907F3CF88E00E94F702DBCFCF919F
:10104000089561E085E00E94D81B83B7817F83BF4C
:1010500083B7816083BF80917A008F7780937A0015
:1010600080E880BF8FE380937E0083E080937F00E1
:10107000809164008068809364008091640088603F
:101080008093640080916400806480936400809108
:1010900064008160809364000E94710460913D014E
:1010A00070913E0180913F01909140010E94970113
:1010B00080913D0190913E01A0913F01B09140018E
:1010C000843F21E09207A105B105D4F49C01AD0154
:1010D00064E0220F331F441F551F6A95D1F760E06B
:1010E00074E284EF90E00E94D01C215031093093CB
:1010F000C5002093C4008091C0008D7F8093C00004
:1011000062E471E081E993E00E94801C40E551E0D7
:101110006AE081E491E00E94E801811103C086E069
:101120000E94F70288E693E00E94F90C61E471E006
:1011300088E693E00E94D309882371F060E471E0AF
:1011400081E993E00E94801C0E940B068091370188
:10115000811106C00C94A60788E00E94F702EECF2A
:101160000895109294031092930388EE93E0A0E008
:10117000B0E08093950390939603A0939703B09368
:1011800098038CE091E0909392038093910343E560
:1011900053E06DE973E089EF96E00E94701A1092B7
:1011A0004601109268031092690384E680938803D5
:1011B00010928D0380E580938E0310928F03089523
:1011C000CF93CFB7F8948091F406811127C0E7EA56
:1011D000F1E08491E3E9F1E09491E82FF0E0EE0F83
:1011E000FF1FEB53FE4FA591B4918C91892321F4FD
:1011F00061E08AE00E94111C61E08AE00E94D81B35
:101200008CB580618CBD8CB580648CBD61E08DE057
:101210000E94D81B61E08BE00E94D81B8091F406ED
:101220008F5F8093F406CFBFCF9108959FB7F89456
:101230008091F406882319F081508093F406809100
:10124000F406811105C08CB58F7B8CBD1092F3061E
:101250009FBF089580960C94A913FC01828184603D
:1012600082839F01245F3F4F44855585668577853E
:10127000868197810C943A159F92AF92BF92CF923C
:10128000DF92EF92FF920F931F93CF93DF93EC01C6
:10129000888185FF02C0912C58C088899989AA89C4
:1012A000BB8981159E4FAF41B105A8F7CE010E94C1
:1012B0002D09982E882379F34C855D856E857F8571
:1012C0008E819F810E9432146B017C018E819F81EF
:1012D00025E0B701A60180960E94F3135C010097F8
:1012E000D1F280E092E0F5019C0111922150304052
:1012F000E1F711E0EE81FF810281101780F4950182
:10130000B701A601410F511D611D711D80819181A1
:101310000E94B519882309F4BECF1F5FEBCF10E000
:1013200020E030E089E0000F111F221F331F8A9553
:10133000D1F7488959896A897B89400F511F621FFB
:10134000731F488B598B6A8B7B8B892DDF91CF91D3
:101350001F910F91FF90EF90DF90CF90BF90AF90D3
:101360009F900895CF93DF93EC01262F4C895D89E0
:101370006E897F898E819F8180960E94F3139C01E4
:10138000009761F08C819D818F70992745E0880FCF
:10139000991F4A95E1F7820F931F02C080E090E009
:1013A000DF91CF910895FC018081811114C080E20A
:1013B000DF01982F1D929A95E9F777836683DB0109
:1013C00015969C91903119F0903229F480E4808335
:1013D00081E08283089580E008954F925F926F923A
:1013E0007F928F929F92AF92BF92CF92DF92EF92B5
:1013F000FF920F931F93CF93DF93EC014B017A0180
:1014000088818823D9F09A8190FF18C01DC0D380AD
:10141000D822A114B10409F081C0D1107FC0452B9E
:10142000462B472B09F464C04C855D856E857F850E
:101430009201CF010E944A1487FF6AC089818260AD
:1014400089838FEF9FEFC3C083FF15C0888D998D6F
:10145000AA8DBB8D488959896A897B89841B950B24
:10146000A60BB70BA70160E070E0481759076A07A1
:101470007B07A0F012C085FF11C0EE81FF8186813D
:10148000978155E0880F991F5A95E1F72889398986
:10149000821B930B8E159F0508F47C0187012E019A
:1014A0008CE0480E511C612C42E0742E0115110590
:1014B00009F455C0488959896A897B895A0181E0B4
:1014C000B8222881EE81FF81DB01CA0139E0B6959F
:1014D000A795979587953A95D1F725FF98CF448D95
:1014E000558D668D778D480F591F6A1F7B1F24C04D
:1014F00026FF05C0848D958DA68DB78D04C08C8D7B
:101500009D8DAE8DBF8D8C879D87AE87BF8706C0B2
:10151000811104C08881807711F590CF4C855D855D
:101520006E857F858E819F810E943214AB01BC0144
:101530004D0D511D611D711DEE81FF81A114B1047E
:1015400071F5011582E0180750F183A194A1A5A1BE
:10155000B6A1481759076A077B0729F420C0C701BD
:10156000801B910B34C09401808191810E944919A4
:10157000882309F463CFC12CF2E0DF2E8C0C9D1C74
:1015800088899989AA89BB898C0D9D1DA11DB11DD2
:10159000888B998BAA8BBB8B0C191D0987CFC30134
:1015A0008A199B0968018017910708F46C0120E0F3
:1015B000CF0180960E94F313009709F43FCFBC013E
:1015C0006A0D7B1DA601C4010E94441DD7CFDF9187
:1015D000CF911F910F91FF90EF90DF90CF90BF9030
:1015E000AF909F908F907F906F905F904F900895F5
:1015F000FF920F931F93CF93DF931F92CDB7DEB768
:101600008C01262FFC014089518962897389DB0195
:10161000CA01E5E0B695A79597958795EA95D1F724
:10162000F82FFF70FF2E11F0211117C041E050E09C
:10163000BE016F5F7F4FC8010E94ED09813019F034
:1016400080E090E01CC0F80140895189628973896B
:10165000415E5F4F6F4F7F4F05C0405E5F4F6F4FE2
:101660007F4FF801408B518B628B738BF801868121
:1016700097818796F0E2FF9E800D911D11240F90B7
:10168000DF91CF911F910F91FF9008954F925F923C
:101690006F927F928F929F92AF92BF92CF92DF9282
:1016A000EF92FF920F931F93CF93DF93EC016A01A8
:1016B0007B014C845D846E847F84A881AA2309F415
:1016C00091C0088919892A893B8940175107620707
:1016D000730709F48DC0411551056105710529F4A1
:1016E0001C861D861E861F8678C0A3FF0BC0488DF2
:1016F000598D6A8D7B8D4C155D056E057F0508F44F
:1017000071C014C0A5FF12C0EE81FF818681978150
:10171000F5E0880F991FFA95E1F7A0E0B0E0841793
:101720009507A607B70708F45DC057C0EE81FF8193
:10173000848190E00996B901A801415051096109DD
:101740007109082E04C076956795579547950A94B8
:10175000D2F746015701B1E08B1A9108A108B108F0
:1017600004C0B694A794979487948A95D2F7841668
:101770009506A606B70620F0012B022B032B81F459
:10178000A6FF05C0848D958DA68DB78D04C08C8D68
:101790009D8DAE8DBF8D8C879D87AE87BF8704C022
:1017A000841A950AA60AB70A8E01045F1F4F811496
:1017B0009104A104B10489F04C855D856E857F8517
:1017C00098018E819F810E944A1491E0891A9108A4
:1017D000A108B10818165CF305C0C88AD98AEA8A3C
:1017E000FB8A06C04C865D866E867F8680E001C0DF
:1017F00081E0DF91CF911F910F91FF90EF90DF90EB
:10180000CF90BF90AF909F908F907F906F905F90A0
:101810004F9008958F929F92AF92BF92FF920F9335
:101820001F93CF93DF93EC01F22E80E2DE011D9235
:101830008A95E9F7FB01868197819F838E835D837B
:101840004C83848C958CA68CB78C88869986AA86C6
:10185000BB86FC01B7964F705527B5E0440F551F66
:10186000BA95E1F7E40FF51F338533FD60C037719A
:1018700038832385287111F4386038830B832F2D2A
:101880002370213051F028F0223009F050C023E0BD
:1018900005C0F5FC4CC021E001C022E02A833A815A
:1018A00031FF04C02881217109F041C02F2D287813
:1018B000232B2A83DC0193964D915D916D917C9150
:1018C00096974C8B5D8B6E8B7F8B4489558960E03E
:1018D00070E0BA0155274427028D138D20E030E0D7
:1018E000402B512B622B732BF5FE0AC0411551057D
:1018F00061057105F9F00E94D21581111BC017C056
:101900004C8F5D8F6E8F7F8F448D558D668D778D5B
:10191000488F598F6A8F7B8FF2FE10C0488D598D8A
:101920006A8D7B8DCE010E94460B811107C0188203
:1019300080E005C08A8184608A83EECF81E0DF91F8
:10194000CF911F910F91FF90BF90AF909F908F907C
:1019500008950F931F93CF93DF93EC018881882321
:1019600009F441C08A8182FF38C061E0CE010E9443
:10197000B2098C01009729F489818160898380E014
:1019800033C0FC018081853EB9F3888183FF08C0A4
:10199000488D598D6A8D7B8D448F558F668F778FDB
:1019A0004C8D5D8D6E8D7F8DF801538F428F758BC1
:1019B000648BE091F506F091F606309759F0B80186
:1019C0006A5E7F4FC80148960995F801808D918D18
:1019D000938B828B8A818B7F8A838E819F810E94E9
:1019E0002A09882349F281E0DF91CF911F910F915D
:1019F0000895CF93DF93EC010E94A90C1882DF9128
:101A0000CF910895CF92DF92EF92FF920F931F93A1
:101A1000CF93DF93CDB7DEB7E3970FB6F894DEBF71
:101A20000FBECDBF8C017B015BAB4AABD22E1982BE
:101A30001A82FC018081882311F080E059C0FB01EB
:101A400080818077D1F3EAA9FBA980818F32D9F414
:101A5000EAA9FBA980818F3221F43196FBABEAAB76
:101A6000F7CFF70166817781811104C0C8010E9418
:101A7000D3093EC0CE0101960E94D3098823E9F222
:101A8000CE0101967C0150E2C52EAE014E5C5F4F47
:101A9000BE016F5D7F4F8AA99BA90E94290F8823F1
:101AA00061F2EAA9FBA980818823D1F020E0AE0190
:101AB0004F5D5F4FB701C8010E945B11882309F495
:101AC000BCCFF801DE0111968C2D01900D928A9504
:101AD000E1F7C8010E94F90CFE0131967F01D5CFD4
:101AE0002D2DAE014F5D5F4FB701C8010E945B1104
:101AF000E3960FB6F894DEBF0FBECDBFDF91CF9156
:101B00001F910F91FF90EF90DF90CF9008952F924B
:101B10003F924F925F926F927F928F929F92AF927D
:101B2000BF92CF92DF92EF92FF920F931F93CF93CA
:101B3000DF93EC015B014A01888183FF0EC08A813B
:101B400081FF0BC083FF0FC0488D598D6A8D7B8D3F
:101B5000CE010E94460B811106C089818160898374
:101B60008FEF9FEF03C1A40160E070E0888999893D
:101B7000AA89BB8980959095A095B0958417950703
:101B8000A607B70750F374011E012CE0220E311C8A
:101B9000488959896A897B89E114F10409F4C4C030
:101BA0008E819F812A013B0129E0769467945794A6
:101BB00047942A95D1F7DC0113961C9114216A01F0
:101BC000B1E0DB22111134C0C114D10489F54C8578
:101BD0005D856E857F85411551056105710569F04B
:101BE00091010E944A1487FDB8CF811121C0CE0116
:101BF0000E942D0981111CC0B0CF8C8D9D8DAE8DA2
:101C0000BF8D0097A105B10579F4CE010E942D0981
:101C1000882309F4A2CF8C859D85AE85BF858C8FE6
:101C20009D8FAE8FBF8F04C08C879D87AE87BF8787
:101C30004C855D856E857F858E819F810E943214E3
:101C4000AB01BC01410F511D611D711DEE81FF8172
:101C5000C114D10421F4E11422E0F206B8F580E0C9
:101C600092E08C199D0987018E159F0508F48C015F
:101C7000C114D10479F4488859886A887B88888D92
:101C8000998DAA8DBB8D481659066A067B0610F001
:101C900025E001C021E0CF0180960E94F313009758
:101CA00009F45BCFA801B5018C0D9D1D0E94441D58
:101CB000C00ED11EC11482E0D80629F58E819F8105
:101CC00080960E94A91381111EC047CF83A194A1C1
:101CD000A5A1B6A184179507A607B70741F410A2DE
:101CE0008FEF9FEFDC0183A394A3A5A3B6A3EE819E
:101CF000FF819501808191810E94B519882309F4A3
:101D00002CCF00E012E088899989AA89BB89800FCD
:101D1000911FA11DB11D888B998BAA8BBB8BA00E27
:101D2000B11EE01AF10A34CF888D998DAA8DBB8D32
:101D30002A8184179507A607B70728F4488F598F7B
:101D40006A8F7B8F06C08091F5069091F606892BED
:101D500011F024602A838A8187FD02C0C40106C075
:101D6000CE010E94A90C8111F9CFF7CEDF91CF915E
:101D70001F910F91FF90EF90DF90CF90BF90AF90A9
:101D80009F908F907F906F905F904F903F902F909B
:101D90000895653040F4FC01E60FF11DE60FF11DDA
:101DA0008181928108956B3040F4FC01E60FF11DB2
:101DB000E60FF11D848195810895613140F4FC01A5
:101DC000E60FF11DE60FF11D86819781089580E0F1
:101DD00090E00895FC0190E080E080FB879587F912
:101DE0002191820F9F5F9B30C1F70895CF93DF93BE
:101DF000FC01DB0118964D915D916D917C911B97D3
:101E0000452B462B472B41F416966D917C911797E5
:101E1000DF91CF910C94D30980E2EF0119928A955A
:101E2000E9F780E1808381E0828316968D919C9111
:101E300017979783868318964D915D916D917C914C
:101E40001B97448F558F668F778F81E0DF91CF91FD
:101E50000895CF92DF92EF92FF920F931F93CF934B
:101E6000DF93FB01DC0101962C912032D9F3B4837E
:101E7000A383ED01BE016A1B7B0B8991811105C013
:101E8000CD01860F971FEC0118C08F32C9F38C3536
:101E900011F480E0D0C0982F977F9232D1F38A332B
:101EA000C1F3982F9F7B9C33A1F392EC980F923053
:101EB00080F380528F35F0F2ECCF1C2F3D2F29910B
:101EC0002032D9F32F32C9F3EA0118833983EC01A8
:101ED0006115710561F08A918E3211F0803219F42A
:101EE00061507109F5CF6F3F710509F094F6728367
:101EF000618380E090E020E2EF01C80FD91F2E83BC
:101F000001968B309105C1F7ED01CE018A1B9B0B29
:101F100029912E32D1F32032C1F351E0009709F01C
:101F200050E09B012150310938F407E010E0C12C4A
:101F3000F12CC8E0EC2E0FC0ED01C20FD31F488179
:101F40004E3281F7F2CFED01C80FD91F48814032E0
:101F500031F450E0019686179707ACF343C04E3238
:101F600021F428173907A9F704C04232A1F04C37F1
:101F700091F0C6EDC40FC63010F44D3261F4C6ECDA
:101F8000C40FC63040F0C5EAC40FC33020F0CFED17
:101F9000C40FCE3530F08217930709F150E04FE5BA
:101FA00003C082179307D9F00117D0F1CFE9C40F0E
:101FB000CA3118F44052FE2805C0CFEBC40FCA3115
:101FC00008F4CE28DD24D394D10EEF01C10FD11D2A
:101FD0004E8346E04D1508F0D5821D2DBBCF0A304B
:101FE000C9F450E08681803209F453CF552339F08B
:101FF000CF2011F082E001C08F2D808309C081E0E5
:1020000080838581E80FF11D8EE7868381E38783D6
:1020100081E011C0C9010AE018E040E1E42E9ACF46
:102020000A30F9F228173907E4F2C9010AE018E08A
:1020300050E1E52E8ECFDF91CF911F910F91FF9050
:10204000EF90DF90CF900895BF92CF92DF92EF9202
:10205000FF920F931F93CF93DF93CDB7DEB7A09777
:102060000FB6F894DEBF0FBECDBF8C0119821A8265
:10207000DC018C9183FD02C080E087C0F801828181
:1020800081FFFACF448D558D668D778D41155105B1
:102090006105710549F0D80116968D919C911797AD
:1020A0000E94D215882341F361E0C8010E94B20961
:1020B0007C01009709F30E94EA0ED82E85EEF70105
:1020C0008083D8011C9216968D919C9117978096CB
:1020D0000E94A913882381F2F8019381992309F4BE
:1020E00054C0B801CE0101960E94F60E882321F259
:1020F000BB24B39425EEC22EF80183818B1508F41E
:10210000BBCFEB2CF12CF801448155814E195F09AE
:1021100060E070E095E0440F551F661F771F9A95A9
:10212000D1F7CE0101960E94460B882309F4A4CF73
:1021300060E0CE0101960E94F80AFC01009709F4C4
:102140009BCF83858F3009F097CF2081822F8F71AD
:1021500090E0E816F90609F08FCF8585D8128CCF6C
:10216000C082D8011696ED91FC91179780A18160ED
:1021700080A326FF08C016968D919C911797809694
:102180000E94A91302C0B394B7CFA0960FB6F894DB
:10219000DEBF0FBECDBFDF91CF911F910F91FF909A
:1021A000EF90DF90CF90BF900895AF92BF92CF9203
:1021B000DF92EF92FF920F931F93CF93DF937C01F7
:1021C000EB01AD8002E010E07EE7B72E6E0186E005
:1021D000C80ED11C89819A819801280F391FEB8183
:1021E000FC81AF01480F591FE417F50779F0C901C9
:1021F00065E0880F991F6A95E1F7820F931F21917F
:10220000332727FD309528273927EECFE3E0EA155D
:1022100010F453E0A52E84E08A0D922F9F70E82FD2
:10222000F0E09A3010F4905D01C0995CEC0FFD1F56
:10223000968344E0369527954A95E1F78150A81694
:1022400060F3FE01EA0DF11DB68240E050E0BA01F4
:10225000C7010E94460B61E0C7010E94F80ABC0159
:10226000009731F481E0F70191819923C9F017C0FB
:10227000FC018081882359F0838583FDECCF4BE0FE
:1022800050E0C6010E94371D892B29F702C081E06A
:1022900007C00F5F1F4F0436110509F09BCF80E088
:1022A000DF91CF911F910F91FF90EF90DF90CF9032
:1022B000BF90AF9008952F923F924F925F926F928E
:1022C0007F928F929F92AF92BF92CF92DF92EF92C6
:1022D000FF920F931F93CF93DF93CDB7DEB72C9769
:1022E0000FB6F894DEBF0FBECDBF3C017C876B8775
:1022F0007A01322EDA0111968D909C901297FB0193
:102300008081807711F480E0F5C1D3018C91811137
:10231000FACFFA018081837009F46FC1C4010C9671
:102320006DE070E00E94BC1C55245394560E40E0B2
:1023300050E0BA018B859C850E94460B1B821C8253
:102340001982412C10E000E01A82F7013696FE83D4
:10235000ED83AB85BC8550962D913D914D915C915F
:10236000539765E056954795379527956A95D1F728
:10237000590161E0CD012A873F83488759870E9430
:10238000F80A6C012A853F81009739F4EB85FC85BA
:102390008181882309F486C0B6CFDC018C91853E0B
:1023A00011F081110AC0111102C02B833C83151555
:1023B00008F41F5F811104C075C0151528F005C011
:1023C000853E19F400E0C5CF10E08E32D9F3F60156
:1023D00093859F3009F044C0011108C086FFB9CF32
:1023E000082F0F7125852983402E07C04A94841138
:1023F000E9CF858529812813E5CF842D90E00197C9
:10240000ADE0A89F5001A99FB00C1124A814B904F5
:10241000C8F6212C622DC6010E94C90EA814B90469
:1024200019F4892B79F695CF8F3F910509F050F675
:102430002FEB280F2A3108F4805E95012F5F3F4F64
:10244000D7011396ED91FC911497EA0DFB1D908135
:102450004FEB490F4A3108F4905E8913B3CFD0C0D7
:1024600093FDB0CF002351F0B1E04B124CCFC60129
:102470000E94EA0E2981821346CF11C04BE050E042
:102480006D817E81C6010E94371D892B09F061CFC5
:10249000D7018C9180FF03C021E02A835ACF36FEFA
:1024A000A4C031CF34FE2FCF832D83708150823072
:1024B00008F029CF112311F0AB80BC80151568F40A
:1024C00060E08B859C850E94F80A892B09F09FC0EB
:1024D000EB85FC858181811116CF151588F48B85DC
:1024E0009C850E943C09882309F40DCFAB85BC85EF
:1024F0001696ED91FC9117978281823008F489C07D
:102500002A81211188C0A50160E070E025E0440F18
:10251000551F661F771F2A95D1F78B859C850E94D2
:10252000460B882309F4EFCE0FEF050D102F8FE037
:10253000482E570186E0A80EB11C9DE0592E1111BE
:1025400072C0EB85FC8580899189A289B38915E0E9
:10255000B695A795979587951A95D1F75C0160E098
:10256000CF010E94F80A6C01009709F4CCCE80E2FA
:10257000D6011D928A95E9F7F70136968BE0D601D0
:1025800001900D928A95E1F7F70180818871D6015B
:102590001C968C93E091F506F091F606309709F4BD
:1025A0009FC0B601625F7F4FC60140960995D60174
:1025B00050968D919C91519753969C938E935297E0
:1025C00059969C938E9358971E968D919C911F9728
:1025D00057969C938E935697AB85BC851696ED9136
:1025E000FC91179780A1816080A3232DA5016B85A5
:1025F0007C85C3010E940A0C7DC05524539497CE5C
:102600002394FDE02F1609F4A4CE590103CF1F5FD8
:1026100055CF105F62CFB7018B859C850E94D51086
:10262000811171CF70CE60E08B859C850E94F80A85
:102630006C01009709F467CEAB85BC851696ED91C9
:10264000FC91179780A1816080A3212F101301C0F6
:102650002064F601208343861486C5012A870E94E0
:10266000EA0ED6011D968C931D975B961C921E92C6
:102670005A97F701438154812A852F7130E0215008
:102680003109529EC001539E900D1124F60160E065
:102690008815990540F4DA01A80FB91F2C9133274A
:1026A00027FD30950AC021E030E08815990511F426
:1026B00020E030E0319521953109653018F43283FE
:1026C000218307C06B3018F43583248302C037831D
:1026D00026836F5F019632966D30D1F611502FCF61
:1026E00081E298E2F601918B808B80E098E09787F9
:1026F00086875DCF2C960FB6F894DEBF0FBECDBF98
:10270000DF91CF911F910F91FF90EF90DF90CF90CD
:10271000BF90AF909F908F907F906F905F904F9001
:102720003F902F9008956115710581F0DB010D90A8
:102730000020E9F7AD0141505109461B570BDC0160
:10274000ED91FC910280F381E02D099480E090E00E
:102750000895BF92CF92DF92EF92FF920F931F9353
:10276000CF93DF93EC01888180FF30C08E01095F39
:102770001F4F4B815C816D817E81E981FA819801D7
:10278000808191810E94B519B82E811102C0B12CAF
:102790001FC0888181FD04C088818E7F888318C016
:1027A000E981FA814485558566857785CB80DC8013
:1027B000ED80FE804C0D5D1D6E1D7F1D980180819A
:1027C00091810E94B5198111E7CFE1CFBB24B39469
:1027D0008B2DDF91CF911F910F91FF90EF90DF90A4
:1027E000CF90BF900895CF92DF92EF92FF921F9308
:1027F000CF93DF93EC016A017B01122F4B815C8147
:102800006D817E814C155D056E057F05E9F00E94A6
:10281000A913811103C080E090E01CC012FF06C024
:102820001882CB82DC82ED82FE820EC0E981FA81C1
:102830009E01295F3F4FB701A601808191810E94CF
:1028400049198111EDCFE7CF13708881812B8883DF
:10285000CE010796DF91CF911F91FF90EF90DF900F
:10286000CF9008954250510961097109FC0104801B
:1028700004C0440F551F661F771F0A94D2F7808942
:102880009189A289B389480F591F6A1F7B1FCB0109
:10289000BA010895CF92DF92EF92FF920F931F93A8
:1028A000CF93DF93EC016A017B018901423051052E
:1028B0006105710510F48FEF63C0888D998DAA8D25
:1028C000BB8D84179507A607B707A8F38D818032C3
:1028D00041F5E7E07695679557954795EA95D1F7E5
:1028E0008C899D89AE89BF89480F591F6A1F7B1F3C
:1028F00022E0CE0180960E94F3130097E1F2E89463
:10290000C7F8DD24EE24FF24F601EE0FFF1FEE0FC3
:10291000FF1FE80FF91F80819181A281B381BF70F1
:102920001EC0803141F64C895D896E897F894D0DCD
:10293000511D611D711D22E0CE0180960E94F3138E
:10294000009709F4B8CFDD24EE24FF24F601EE0F42
:10295000FF1FE80FF91F80819181A0E0B0E0488D52
:10296000598D6A8D7B8D481759076A077B0738F0A8
:10297000F80180839183A283B38381E001C080E06A
:10298000DF91CF911F910F91FF90EF90DF90CF904B
:1029900008958F929F92AF92BF92CF92DF92EF9263
:1029A000FF920F931F936A017B0148015901423046
:1029B000510561057105B8F1FC01408D518D628DA5
:1029C000738D4C155D056E057F0568F125812032FC
:1029D00041F5B701A60117E076956795579547959C
:1029E0001A95D1F70489158926893789400F511F17
:1029F000621F731F23E080960E94F313009799F0E3
:102A0000E894C7F8DD24EE24FF24F601EE0FFF1F43
:102A1000EE0FFF1FE80FF91F80829182A282B3821E
:102A20001DC0203111F080E01AC0FC014489558995
:102A3000668977894D0D511D611D711D23E08096BA
:102A40000E94F313009779F3DD24EE24FF24F601AE
:102A5000EE0FFF1FE80FF91F9182808281E01F9126
:102A60000F91FF90EF90DF90CF90BF90AF909F902D
:102A70008F9008953F924F925F926F927F928F92C4
:102A80009F92AF92BF92CF92DF92EF92FF920F93FD
:102A90001F93CF93DF9300D000D0CDB7DEB75C019A
:102AA0002A013B014901FC01C084D184E284F38402
:102AB000C416D506E606F70650F56A017B0110E05C
:102AC00011C0C414D504E604F704F1F19E012F5F90
:102AD0003F4FB701A601C5010E944A1487FD34C0CB
:102AE000811117C0FFEFCF1ADF0AEF0AFF0AF501C5
:102AF000808D918DA28DB38D8C159D05AE05BF0582
:102B000000F7111121C0C084D184E284F38411E064
:102B1000E9CF89819A81AB81BC81892B8A2B8B2B50
:102B200009F7112329F0F501C086D186E286F386E4
:102B30000FEF1FEF2FEF3FE0B701A601C5010E9485
:102B4000C914382E811102C0312C15C04114510412
:102B50006104710431F4F401C082D182E282F38213
:102B60000AC097018601B301A201C5010E94C914E0
:102B70008111F1CFE9CF832D0F900F900F900F901F
:102B8000DF91CF911F910F91FF90EF90DF90CF9049
:102B9000BF90AF909F908F907F906F905F904F907D
:102BA0003F9008959F92AF92BF92CF92DF92EF92A3
:102BB000FF920F931F93CF93DF9300D000D0CDB738
:102BC000DEB75C016A017B019E012F5F3F4FB701B9
:102BD000A601C5010E944A14982E87FF02C080E01A
:102BE00024C000E010E09801B701A601C5010E94D1
:102BF000C9148823A1F3F501408551856285738549
:102C00004C155D056E057F0550F0F1E0CF1AD10837
:102C1000E108F108F501C086D186E286F386C98015
:102C2000DA80EB80FC809110CFCF0F900F900F9047
:102C30000F90DF91CF911F910F91FF90EF90DF9058
:102C4000CF90BF90AF909F900895CF92DF92EF9278
:102C5000FF920F931F93CF93DF93EC01162F1D82EA
:102C600081E090E0A0E0B0E088879987AA87BB87E1
:102C7000DAA3C9A318A28FEF9FEFDC018BA39CA35B
:102C8000ADA3BEA3662321F1653008F0BFC020E0EC
:102C900040E050E0BA01CE0180960E94F313009705
:102CA00009F4B4C0FC0100E1109FE00DF11D1124F6
:102CB000E255FE4F80818F7709F0A8C0C084D1848F
:102CC000E284F384C114D104E104F10421F49EC030
:102CD000C12CD12C760120E0B701A601CE0180964F
:102CE0000E94F313FC01009709F490C0838594853A
:102CF0008115924009F08AC08089823009F086C02F
:102D000086859785892B09F481C035853A838FEFB5
:102D1000830F8B831C8289E090E021E0321741F021
:102D2000019709F473C0220F4C814F5F4C83F6CF9B
:102D3000468957894115510519F060E070E004C0DB
:102D400044A155A166A177A14C875D876E877F87D7
:102D50008685978597018601080F191F211D311D52
:102D60000C8B1D8B2E8B3F8B818992899F838E8349
:102D7000440F551F661F771F400F511F621F731F9F
:102D80004C8F5D8F6E8F7F8FB5E0880F991FBA953E
:102D9000E1F781509E4F892F99278695480F591F3B
:102DA000611D711D488B598B6A8B7B8B838994893C
:102DB000009719F0A0E0B0E004C080A191A1A2A109
:102DC000B3A197018601041B150B260B370BB90124
:102DD000A801480F591F6A1F7B1F0C8004C07695FD
:102DE0006795579547950A94D2F7DB01CA0101967A
:102DF000A11DB11D888F998FAA8FBB8F453F1FE002
:102E000051076105710520F48CE08D8380E012C0CC
:102E1000453F5F4F6105710510F480E109C084A54D
:102E200095A5A6A5B7A58C8F9D8FAE8FBF8F80E28D
:102E30008D8381E0DF91CF911F910F91FF90EF90F3
:102E4000DF90CF9008958FEF8EBD0DB407FEFDCFBC
:102E50008EB508958EBD0DB407FEFDCF0895CF93B6
:102E6000DF93EC018B81811125C0E981FA813081EA
:102E700021818091F306882399F09FB7F89480917F
:102E8000F306813059F48DB38093F1064DB38091F0
:102E9000F206809584238DBB9FBF02C09093F106FC
:102EA0003CBD2DBDE981FA8160E082810E94111C48
:102EB00081E08B83DF91CF910895CF93DF93EC0175
:102EC0008B818823D1F0E981FA8161E082810E94BF
:102ED000111C8FEF0E942A178091F306882361F05E
:102EE0009FB7F8942091F3068091F106213019F4F0
:102EF0008DBB9FBF01C08FBF1B82DF91CF91089513
:102F0000CF92DF92EF92FF920F931F93CF93DF93B5
:102F1000EC018B017A010E941D1B6B010E9423179B
:102F20008C838F3F49F40E941D1B6C197D09693EFB
:102F30007340A0F385E503C08E3F39F080E58883B8
:102F4000CE010E945D1780E025C0E114F104E1F09C
:102F500081E0E81AF1088FEF8EBDF8012FEFCF0165
:102F6000801B910B8E159F0538F40DB407FEFDCF25
:102F70008EB52EBD8193F3CF0DB407FEFDCF8EB578
:102F8000F801EE0DFF1D80831C820E9423170E9412
:102F9000231781E0DF91CF911F910F91FF90EF9068
:102FA000DF90CF9008950F931F93CF93DF93EB01A2
:102FB0000E941D1B8B010E9423178F3F49F00E9426
:102FC0001D1B601B710BC617D707A8F780E001C057
:102FD00081E0DF91CF911F910F910895FF920F93A0
:102FE0001F93CF93DF9300D000D0CDB7DEB78C0115
:102FF000F62E29833A834B835C83FC018381811104
:1030000003C0C8010E942F17FF2029F06CE271E075
:10301000C8010E94D3178F2D80640E942A178C81CB
:103020000E942A178B810E942A178A810E942A17E0
:1030300089810E942A17F11002C085E901C087E842
:103040000E942A170E9423178BE0F82E0E94231754
:10305000F801848387FF02C0FA94C1F70F900F90A4
:103060000F900F90DF91CF911F910F91FF900895D6
:10307000CF92DF92EF92FF921F93CF93DF93EC01F9
:10308000162F69017A0120E030E0A90167E30E9470
:10309000EE17A7019601612FCE01DF91CF911F910D
:1030A000FF90EF90DF90CF900C94EE174F925F92CD
:1030B0006F927F928F929F92AF92BF92CF92DF9248
:1030C000EF92FF920F931F93CF93DF931F92CDB791
:1030D000DEB72C013901DC0113961C9213971C9268
:1030E00015961C92159712967C936E9311974983AF
:1030F0000E941D1B4B015C01F2010181128149817B
:10310000D80112964C9361E0842F0E94D81B61E095
:10311000F80182810E94111C0E94E008D2011196E0
:10312000ED91FC91129782E580831182C2010E9489
:103130002F17D2011196ED91FC91129761E08281D7
:103140000E94111C1AE08FEF0E942A171150D9F724
:10315000D2011196ED91FC91129760E082810E945C
:10316000111C2AE0F22E20E030E0A90160E0C2014B
:103170000E94EE17182F813089F0FA9421F480E232
:10318000F201808370C08DEF0E942A1708E012E0E0
:103190000E94231701501109D9F7E5CF2AEA31E03F
:1031A00040E050E068E0C2010E94EE17853021F453
:1031B000D20115961C930EC014E00E942317F20151
:1031C00084831150D1F78A3A19F482E0858302C0D2
:1031D00085E22CC0F2018581823031F4C12CD12CE2
:1031E000E12C90E4F92E03C0C12CD12C7601A7016B
:1031F000960169E2C2010E943818882349F00E94B2
:103200001D1B68197909613D774088F383E40EC07E
:10321000F20185818230D9F420E030E0A9016AE32F
:10322000C2010E94EE17882321F087E3D2018C931C
:103230001AC00E942317807C803C19F483E0F201BD
:1032400085830E9423170E9423170E942317C2011F
:103250000E945D17D2011196ED91FC911297608248
:10326000718281E004C0C2010E945D1780E00F906E
:10327000DF91CF911F910F91FF90EF90DF90CF9052
:10328000BF90AF909F908F907F906F905F904F9086
:1032900008950F931F93CF93DF93EC0189018D81E4
:1032A000833039F039E0440F551F661F771F3A9578
:1032B000D1F79A01AB0161E1CE010E94EE1788239C
:1032C00019F080E388830DC040E052E0B801CE01E0
:1032D0000E948017182F882321F0CE010E945D17CD
:1032E00004C0CE010E945D1710E0812FDF91CF91C5
:1032F0001F910F9108950F931F93CF93DF93EC01CC
:10330000862F8A010E942A17F80180818EBD818153
:1033100022E030E00DB407FEFDCF8EBD2115F2E0B6
:103320003F0739F0F801E20FF31F80812F5F3F4F15
:10333000F1CF0DB407FEFDCF8FEF0E942A178FEF5C
:103340000E942A170E9423178C838F71853039F0D1
:1033500087E58883CE010E945D1780E001C081E08F
:10336000DF91CF911F910F9108950F931F93CF93EA
:10337000DF93EC0189018D81833039F039E0440F0E
:10338000551F661F771F3A95D1F79A01AB0168E187
:10339000CE010E94EE17882311F082E323C0A8011A
:1033A0006EEFCE010E947B198823E9F060ED77E093
:1033B000CE010E94D317182F811102C08AE512C0D6
:1033C00020E030E0A9016DE0CE010E94EE178111EE
:1033D00008C00E942317811104C0CE010E945D170E
:1033E00006C089E28883CE010E945D1710E0812F1C
:1033F000DF91CF911F910F910895FC014FB7F89481
:103400002281338184819581281B390B4FBF37FF7F
:1034100005C086819781820F931F0895C901089581
:10342000FC01848195812281338128173907B9F005
:103430009C012F5F3F4FA081B181A80FB91F8C91D4
:10344000DB018C93868197812817390718F080E07B
:1034500090E001C0C9019583848381E0089580E0F4
:103460000895EF92FF920F931F93CF93DF938C01F8
:10347000CB01F894F801C281D3817894F801E480FB
:10348000F580CE15DF0518F4C681D78103C0EC1690
:10349000FD06E8F4CE19DF094C175D0708F4EA01D0
:1034A000F801608171816E0D7F1DAE010E94441D87
:1034B000EC0EFD1EF80186819781E816F90610F0E2
:1034C000E81AF90AF801F582E482CE0102C080E030
:1034D00090E0DF91CF911F910F91FF90EF900895B1
:1034E000FC017183608357834683158214821382A3
:1034F00012820895FC0122813381848195812817ED
:10350000390751F0848195810190F081E02DE80F19
:10351000F91F808190E008958FEF9FEF0895FC01DF
:1035200022813381C9010196A081B181A20FB31F0D
:103530006C93268137818217930710F080E090E02A
:10354000248135818217930721F09383828381E060
:10355000089580E008951F920F920FB60F921124E4
:103560002F933F934F935F936F937F938F939F938B
:10357000AF93BF93EF93FF936091C60089EF96E0FE
:103580000E948F1AFF91EF91BF91AF919F918F9100
:103590007F916F915F914F913F912F910F900FBE4F
:1035A0000F901F9018951F920F920FB60F92112433
:1035B0002F933F938F939F93AF93BF938091020775
:1035C00090910307A0910407B0910507309101077E
:1035D00023E0230F2D3720F40196A11DB11D05C056
:1035E00026E8230F0296A11DB11D209301078093A9
:1035F000020790930307A0930407B09305078091F7
:10360000060790910707A0910807B0910907019656
:10361000A11DB11D8093060790930707A09308078B
:10362000B0930907BF91AF919F918F913F912F91D7
:103630000F900FBE0F901F9018952FB7F8946091C0
:1036400002077091030780910407909105072FBF2F
:1036500008953FB7F8948091060790910707A091CD
:103660000807B091090726B5A89B05C02F3F19F0A0
:103670000196A11DB11D3FBF6627782F892F9A2F74
:10368000620F711D811D911D42E0660F771F881F1B
:10369000991F4A95D1F70895CF92DF92EF92FF924A
:1036A000CF93DF936B017C010E94291BEB01C114B6
:1036B000D104E104F10489F00E94BB1C0E94291B83
:1036C0006C1B7D0B683E734090F381E0C81AD108F3
:1036D000E108F108C851DC4FEACFDF91CF91FF90AC
:1036E000EF90DF90CF900895789484B5826084BD88
:1036F00084B5816084BD85B5826085BD85B58160F6
:1037000085BDEEE6F0E0808181608083E1E8F0E055
:103710001082808182608083808181608083E0E884
:10372000F0E0808181608083E1EBF0E08081846063
:103730008083E0EBF0E0808181608083EAE7F0E065
:1037400080818460808380818260808380818160C9
:1037500080838081806880831092C10008958330C7
:1037600081F028F4813099F08230A1F008958730FB
:10377000A9F08830B9F08430D1F4809180008F7D39
:1037800003C0809180008F7780938000089584B576
:103790008F7702C084B58F7D84BD08958091B0007D
:1037A0008F7703C08091B0008F7D8093B000089523
:1037B000CF93DF9390E0FC01E757FE4F2491FC018B
:1037C000E356FE4F8491882349F190E0880F991FBA
:1037D000FC01EB53FE4FA591B49185549E4FFC0123
:1037E000C591D4919FB7611108C0F8948C91209530
:1037F00082238C93888182230AC0623051F4F8942A
:103800008C91322F309583238C938881822B8883EF
:1038100004C0F8948C91822B8C939FBFDF91CF9141
:1038200008950F931F93CF93DF931F92CDB7DEB709
:10383000282F30E0F901EB58FE4F8491F901E7574A
:10384000FE4F1491F901E356FE4F04910023C9F095
:10385000882321F069830E94AF1B6981E02FF0E08B
:10386000EE0FFF1FE554FE4FA591B4919FB7F8945A
:103870008C91611103C01095812301C0812B8C9321
:103880009FBF0F90DF91CF911F910F910895CF931C
:10389000DF93282F30E0F901EB58FE4F8491F901B6
:1038A000E757FE4FD491F901E356FE4FC491CC2364
:1038B00091F081110E94AF1BEC2FF0E0EE0FFF1F83
:1038C000EF54FE4FA591B4912C912D2381E090E00F
:1038D00021F480E002C080E090E0DF91CF91089574
:1038E00008950E94741B0E94701C0E942108C0E071
:1038F000D0E00E9402042097E1F30E940000F9CF7B
:10390000EF92FF920F931F93CF93DF938C01FB01F4
:10391000C0E0D0E064917F018FEFE81AF80A6623D7
:1039200061F0D801ED91FC910190F081E02DC8018A
:103930000995C80FD91FF701EDCFCE01DF91CF91C7
:103940001F910F91FF90EF90089568E171E00C9442
:1039500093130F931F93CF93DF93EC010E94801C6E
:103960008C01CE010E94A51C800F911FDF91CF9189
:103970001F910F9108950895AA1BBB1B51E107C029
:10398000AA1FBB1FA617B70710F0A61BB70B881FEF
:10399000991F5A95A9F780959095BC01CD0108957E
:1039A000A1E21A2EAA1BBB1BFD010DC0AA1FBB1F43
:1039B000EE1FFF1FA217B307E407F50720F0A21BB5
:1039C000B30BE40BF50B661F771F881F991F1A9422
:1039D00069F760957095809590959B01AC01BD014C
:1039E000CF0108950E94031DA59F900DB49F900DD7
:1039F000A49F800D911D11240895EE0FFF1F0590C7
:103A0000F491E02D0994A29FB001B39FC001A39F40
:103A1000700D811D1124911DB29F700D811D112407
:103A2000911D0895FC0188279927E894219120325F
:103A3000E9F3293010F02E30C8F32B3241F02D324B
:103A400039F4689404C00E944D1D820F911D21918C
:103A500020532A30C0F31EF4909581959F4F08950E
:103A6000FB01DC0105900D920020E1F70895FB01B8
:103A7000DC0104C08D910190801921F44150504027
:103A8000C8F7881B990B0895FB01DC0102C0019067
:103A90000D9241505040D8F708957AE0979F902DAD
:103AA000879F802D910D11240895AEE0B0E0EBE5E5
:103AB000FDE10C9413200D891E898EE08C831A83FE
:103AC00009838FEF9FE79E838D83AE01475E5F4F33
:103AD0006F89788DCE0101960E94771DEF81F88560
:103AE000E00FF11F10822E96E4E00C942F20ACE042
:103AF000B0E0EDE7FDE10C9405207C016B018A014B
:103B0000FC0117821682838181FFBDC1CE0101961F
:103B10004C01F7019381F60193FD859193FF81910B
:103B20006F01882309F4ABC1853239F493FD859187
:103B300093FF81916F01853229F4B70190E00E94D3
:103B4000751FE7CF512C312C20E02032A0F48B32AE
:103B500069F030F4803259F0833269F420612CC06E
:103B60008D3239F0803339F4216026C02260246020
:103B700023C0286021C027FD27C030ED380F3A3020
:103B800078F426FF06C0FAE05F9E300D1124532E14
:103B900013C08AE0389E300D1124332E20620CC0F1
:103BA0008E3221F426FD6BC1206406C08C3611F4E0
:103BB000206802C0883641F4F60193FD859193FF99
:103BC00081916F018111C1CF982F9F7D95549330C2
:103BD00028F40C5F1F4FFFE3F9830DC0833631F0EB
:103BE000833771F0833509F05BC022C0F801808112
:103BF00089830E5F1F4F44244394512C540115C0F8
:103C00003801F2E06F0E711CF801A080B18026FF30
:103C100003C0652D70E002C06FEF7FEFC5012C87F8
:103C20000E946A1F2C0183012C852F77222E17C03A
:103C30003801F2E06F0E711CF801A080B18026FF00
:103C400003C0652D70E002C06FEF7FEFC5012C87C8
:103C50000E945F1F2C012C852068222E830123FCEB
:103C60001BC0832D90E048165906B0F4B70180E2DE
:103C700090E00E94751F3A94F4CFF50127FC8591DE
:103C800027FE81915F01B70190E00E94751F3110FE
:103C90003A94F1E04F1A51084114510471F7E5C00C
:103CA000843611F0893639F5F80127FF07C06081A5
:103CB0007181828193810C5F1F4F08C06081718187
:103CC000882777FD8095982F0E5F1F4F2F76B22E95
:103CD00097FF09C090958095709561957F4F8F4FA4
:103CE0009F4F2068B22E2AE030E0A4010E94A71F57
:103CF000A82EA81844C0853729F42F7EB22E2AE0BA
:103D000030E025C0F22FF97FBF2E8F36C1F018F4B6
:103D1000883579F0B4C0803719F0883721F0AFC00A
:103D20002F2F2061B22EB4FE0DC08B2D8460B82ED3
:103D300009C024FF0AC09F2F9660B92E06C028E054
:103D400030E005C020E130E002C020E132E0F801BF
:103D5000B7FE07C060817181828193810C5F1F4F24
:103D600006C06081718180E090E00E5F1F4FA4016A
:103D70000E94A71FA82EA818FB2DFF77BF2EB6FE06
:103D80000BC02B2D2E7FA51450F4B4FE0AC0B2FC3C
:103D900008C02B2D2E7E05C07A2C2B2D03C07A2C2B
:103DA00001C0752C24FF0DC0FE01EA0DF11D8081BC
:103DB000803311F4297E09C022FF06C073947394E6
:103DC00004C0822F867809F0739423FD13C020FF6E
:103DD00006C05A2C731418F4530C5718732C731410
:103DE00068F4B70180E290E02C870E94751F7394FD
:103DF0002C85F5CF731410F4371801C0312C24FF33
:103E000012C0B70180E390E02C870E94751F2C85BB
:103E100022FF17C021FF03C088E590E002C088E7B9
:103E200090E0B7010CC0822F867859F021FD02C0C6
:103E300080E201C08BE227FD8DE2B70190E00E9495
:103E4000751FA51438F4B70180E390E00E94751F38
:103E50005A94F7CFAA94F401EA0DF11D8081B701BD
:103E600090E00E94751FA110F5CF332009F451CEC8
:103E7000B70180E290E00E94751F3A94F6CFF701F7
:103E80008681978102C08FEF9FEF2C96E2E10C9420
:103E90002120F999FECF92BD81BDF89A992780B56E
:103EA0000895262FF999FECF1FBA92BD81BD20BD7E
:103EB0000FB6F894FA9AF99A0FBE01960895FC018C
:103EC0000590615070400110D8F7809590958E0F45
:103ED0009F1F0895FC016150704001900110D8F7B8
:103EE000809590958E0F9F1F08950F931F93CF93EA
:103EF000DF93182F092FEB018B8181FD03C08FEF1A
:103F00009FEF20C082FF10C04E815F812C813D81D8
:103F1000421753077CF4E881F9819F012F5F3F4FDF
:103F200039832883108306C0E885F985812F099598
:103F3000892B29F72E813F812F5F3F4F3F832E83AF
:103F4000812F902FDF91CF911F910F910895FA014A
:103F5000AA27283051F1203181F1E8946F936E7FC8
:103F60006E5F7F4F8F4F9F4FAF4FB1E03ED0B4E0B9
:103F70003CD0670F781F891F9A1FA11D680F791FFA
:103F80008A1F911DA11D6A0F711D811D911DA11D0B
:103F900020D009F468943F912AE0269F112430191B
:103FA000305D3193DEF6CF010895462F4770405DB6
:103FB0004193B3E00FD0C9F7F6CF462F4F70405D65
:103FC0004A3318F0495D31FD4052419302D0A9F7C0
:103FD000EACFB4E0A6959795879577956795BA95BA
:103FE000C9F700976105710508959B01AC010A2E80
:103FF00006945795479537952795BA95C9F7620F57
:10400000731F841F951FA01D08952F923F924F92FA
:104010005F926F927F928F929F92AF92BF92CF9258
:10402000DF92EF92FF920F931F93CF93DF93CDB761
:10403000DEB7CA1BDB0B0FB6F894DEBF0FBECDBFD9
:1040400009942A88398848885F846E847D848C84AA
:104050009B84AA84B984C884DF80EE80FD800C81B3
:104060001B81AA81B981CE0FD11D0FB6F894DEBF96
:0C4070000FBECDBFED010895F894FFCF06
:10407C0000000000CD0142010000000013011C01F2
:10408C005C014501600141010D0A006E616E006921
:0A409C006E66006F7666002E0000CD
:00000001FF
