:100000000C946A040C9492040C9492040C94920440
:100010000C9492040C9492040C9492040C94920408
:100020000C9492040C9492040C9492040C949204F8
:100030000C9492040C9492040C9492040C949204E8
:100040000C94DF2D0C9492040C94B72D0C94920414
:100050000C9492040C9492040C9492040C949204C8
:100060000C9492040C949204200020002F00200095
:1000700045786974696E67000A0D4E756D62657228
:10008000206F6620657363617065206368617261CB
:100090006374657273206E65656465643A20000A56
:1000A0000D456E746572206E756D626572206F66A7
:1000B0002065736361706520636861726163746554
:1000C000727320746F206C6F6F6B20666F722028C4
:1000D0003020746F20323534293A20000A0D4E65E5
:1000E0007720657363617065206368617261637412
:1000F00065723A2000456E7465722061206E6577E6
:100100002065736361706520636861726163746503
:10011000723A20004E65772066696C65206E756DB9
:1001200062657220726573657420746F207A6572DF
:100130006F00436F6D6D616E642070726F6D7074CF
:1001400000417070656E642066696C65206C6F6735
:1001500067696E67004E65772066696C65206C6F15
:100160006767696E67003E007829204578697400EA
:100170003629204E756D626572206F662065736347
:1001800061706520636861726163746572730035C4
:1001900029204E657720657363617065206368610F
:1001A000726163746572003429205265736574202E
:1001B0006E65772066696C65206E756D626572008C
:1001C000332920436F6D6D616E642070726F6D70A6
:1001D0007400322920417070656E642066696C6518
:1001E000206C6F6767696E67003129204E65772044
:1001F00066696C65206C6F6767696E67004368614C
:100200006E676520746F3A00207820004375727223
:10021000656E7420657363617065206368617261E7
:100220006374657220616E6420616D6F756E743ADF
:100230002000436F6D6D616E6400417070656E6487
:100240002066696C65004E65772066696C650043C1
:10025000757272656E7420626F6F74206D6F646565
:100260003A20000D0A53797374656D20436F6E66F2
:10027000696775726174696F6E0062707300476FB1
:10028000696E6720746F20004F7574206F6620625E
:100290006F756E64730045786974696E67003E001F
:1002A000456E746572206E65772062617564207298
:1002B000617465202827782720746F206578697419
:1002C000293A0020627073000A0D43757272656EE0
:1002D0007420726174653A200062617564090909CD
:1002E0003A204D656E7520746F20636F6E66696786
:1002F0007572652062617564207261746500736552
:10030000740909093A204D656E7520746F20636F7A
:100310006E6669677572652073797374656D206D9B
:100320006F64650072657365740909093A20436159
:100330007573657320756E697420746F20726573B0
:1003400065742C207573657320706172616D6574BE
:1003500065727320696E20636F6E666967206669D7
:100360006C65006469736B0909093A2053686F77FB
:1003700073206361726420696E666F726D61746967
:100380006F6E0073697A65203C66696C653E090989
:100390003A2057726974652073697A65206F662008
:1003A0003C66696C653E20746F207465726D696E81
:1003B000616C0072656164203C66696C653E203C3E
:1003C00073746172743E203C6C656E6774683E2085
:1003D0003C747970653E3A204F7574707574732063
:1003E0003C6C656E6774683E206279746573206F3B
:1003F00066203C66696C653E20746F2074686520D9
:100400007465726D696E616C207374617274696E6B
:1004100067206174203C73746172743E2E204F6DAE
:100420006974203C73746172743E20616E64203C78
:100430006C656E6774683E20746F2072656164201D
:1004400077686F6C652066696C652E203C747970E6
:10045000653E2031207072696E747320696E204190
:10046000534349492C203220696E204845582E00BC
:100470006C730909093A2053686F777320746865B3
:1004800020636F6E74656E74206F662074686520DB
:1004900063757272656E74206469726563746F72DD
:1004A000792E2E006D64203C6469726563746F72EE
:1004B000793E09093A2043726561746573206120B1
:1004C0003C6469726563746F72793E006170706537
:1004D0006E64203C66696C653E09093A2041707083
:1004E000656E6473207465787420746F20656E6423
:1004F000206F66203C66696C653E006E6577203C27
:1005000066696C653E09093A2043726561746573DA
:10051000203C66696C653E00426173696320636FCD
:100520006D6D616E64733A004F70656E4C6F67203D
:1005300076342E32002000756E6B6E6F776E2063FE
:100540006F6D6D616E643A20006F6666006F6E00BD
:1005500065656D006F6666006F6E00766572626F2E
:100560007365006F6666006F6E006563686F0054A8
:1005700068697320636F6D6D616E642068617320BC
:100580006265656E2072656D6F7665640070776474
:1005900000617070656E64004572726F72206372E4
:1005A000656174696E672066696C653A20006E65E6
:1005B000770072657365740073796E6300204D4235
:1005C00000436172642053697A653A200072656164
:1005D00064435344206661696C6564002F004D617B
:1005E0006E75666163747572696E672064617465A7
:1005F0003A200053657269616C206E756D62657298
:100600003A20002E000A0D56657273696F6E3A200B
:100610000050726F647563743A20004F454D204955
:10062000443A20004D616E7566616374757265723F
:100630002049443A20007265616443494420666160
:10064000696C656400556E6B6E6F776E005344483D
:10065000430053443200534431000A436172642022
:10066000747970653A20006469736B002D310073F2
:10067000697A65006572726F722077726974696E4B
:100680006720746F2066696C65003C004572726F6C
:1006900072207365656B696E6720746F2000466118
:1006A000696C656420746F206F70656E2066696C7C
:1006B00065200077726974650020002E0045727213
:1006C0006F72207365656B696E6720746F200046DA
:1006D00061696C656420746F206F70656E20666957
:1006E0006C65200072656164002E2E00636400203A
:1006F00066696C652873292064656C65746564009F
:100700002D726600726D004572726F7220637265A1
:100710006174696E67206469726563746F72793A97
:1007200020006D6400566F6C756D652069732046FE
:100730004154006C730073657400626175640068F5
:10074000656C70003F0046696C6520737973746551
:100750006D20696E697469616C697A656400436CC7
:100760006F73696E6720646F776E2066696C6520B1
:1007700073797374656D00696E6974003E002100C1
:10078000626175642C6573636170652C65736323A6
:100790002C6D6F64652C766572622C6563686F2CB6
:1007A00069676E6F726552580000256C642C256471
:1007B0002C25642C25642C25642C25642C256400B0
:1007C0000052656D6F766520636F6E66696720669F
:1007D00061696C656400636F6E6669672E74787416
:1007E00000636F6E6669672E747874007E003C004B
:1007F0004572726F72206372656174696E6720530F
:1008000045514C4F47005345514C4F4730302E54C3
:1008100058540021546F6F206D616E79206C6F67A2
:10082000733A3221004C4F47253035752E545854B9
:100830000021546F6F206D616E79206C6F67733A81
:100840003121003200310066696C652E6F70656E73
:1008500000726F6F742E696E697400766F6C756DBF
:10086000652E696E697400636172642E696E6974C5
:10087000004572726F722000000000080002010043
:10088000000304070000000000000000010204084B
:1008900010204080010204081020010204081020EA
:1008A0000404040404040404020202020202030316
:1008B00003030303000000002300260029000000BA
:1008C0000000250028002B00000000002400270065
:1008D0002A00401711241FBECFEFD8E0DEBFCDBFE6
:1008E00011E0A0E0B1E0EAE6FBE602C005900D925F
:1008F000A033B107D9F725E0A0E3B1E001C01D9214
:10090000AE3EB207E1F718E0C4EDD8E004C022978C
:10091000FE010E944D32C23DD107C9F70E947D2FD2
:100920000C94B3350C9400008091C00085FFFCCF7F
:100930006093C60081E090E00895CF92DF92EF923D
:10094000FF920F931F93CF93DF938C017A01EB01FA
:100950006B01C40ED51ECC15DD0551F06991D8018F
:10096000ED91FC910190F081E02DC8010995F3CF44
:10097000C701DF91CF911F910F91FF90EF90DF9012
:10098000CF900895089504960C94CD1F8DED95E0B9
:100990000C94092DCF93DF931F92CDB7DEB7BE0124
:1009A0006F5F7F4F8DED95E00E941C2D882319F01D
:1009B000898190E002C08FEF9FEF0F90DF91CF9180
:1009C00008958DED95E00C94862D0C94C0340C9414
:1009D000C834EF92FF920F931F93CF93DF938C0154
:1009E0007C018FEFE80EF11CE801CE15DF0550F019
:1009F000CE01801B910BDF91CF911F910F91FF9042
:100A0000EF9008952091DF053091E0058091E10598
:100A10009091E2052817390759F3A7014C1B5D0B8C
:100A2000BE018DED95E00E943D2DC80FD91FDDCF91
:100A3000CF92DF92EF92FF926B017C011092C10086
:100A400086E08093C20060E079E08DE390E0A7014A
:100A500096010E941E32C901213060E2360730F44F
:100A6000C11461EED606E104F10431F41092C00025
:100A7000C9019695879503C022E02093C000019795
:100A8000969587959093C5008093C40088E98093DC
:100A9000C100FF90EF90DF90CF900895CF93DF9348
:100AA0001F92CDB7DEB7698341E050E0BE016F5FB2
:100AB0007F4F04960E94CD1F0F90DF91CF91089534
:100AC000FB01242F6091DB057091DC05AF010C94D4
:100AD000571DCF93DF931F92CDB7DEB741E050E0B3
:100AE000BE016F5F7F4F0E94AA18019719F4898198
:100AF00090E002C08FEF9FEF0F90DF91CF910895AC
:100B0000FC012081207731F09093DC058093DB0598
:100B100081E0089580E00895FF920F931F93CF9393
:100B2000DF938C01F62EEC01C95DDD4FCE010E94F2
:100B30004E1DB801CE010E949018882351F0FF206D
:100B400051F0CE01DF91CF911F910F91FF900C9446
:100B5000800580E001C081E0DF91CF911F910F916E
:100B6000FF900895EF92FF920F931F93CF93DF931F
:100B7000CDB7DEB7A0970FB6F894DEBF0FBECDBFDE
:100B8000FB01E42E19821A8220812F3241F4218147
:100B9000211105C0642F0E948C05F82E1FC08C0106
:100BA000095D1D4F20E0AF01B801CE0101960E9402
:100BB000571DF82E882391F08981807771F080E2AB
:100BC000FE013196D80101900D928A95E1F7EE2051
:100BD00029F0C8010E94800501C0F12C8F2DA0963C
:100BE0000FB6F894DEBF0FBECDBFDF91CF911F913E
:100BF0000F91FF90EF900895FC01148215821382EB
:100C000012828AE091E09183808308950F931F936D
:100C1000CF93DF93EC019A018C01095B1D4F835B3D
:100C20009D4F462FBC01C8010E94B72A882311F1AD
:100C30001983088300521109C8010E944E1D61E00A
:100C4000CE010E948628882339F0BE01C8010E9487
:100C50009018882379F007C060E0CE010E948628B2
:100C60008111F3CF07C0C8010E948005882311F0CD
:100C700081E001C080E0DF91CF911F910F91089535
:100C8000CF92DF92EF92FF920F931F93CF93DF9358
:100C9000CDB7DEB7A4970FB6F894DEBF0FBECDBFB9
:100CA000CE0101960E94FC0583E090E00E94E504DD
:100CB000F82E84E090E00E94E5040F2D10E0182B40
:100CC0009FEFF9120FC08F3F69F460E083E090E07E
:100CD0000E94E70460E084E090E00E94E70400E006
:100CE00010E00CC00E3F8FEF180719F461E378E0B5
:100CF00046C00115110511F00150110945E2E42E1D
:100D000048E0F42E51E3C52E51E0D52E1F930F93EA
:100D1000FF92EF92DF92CF920E94CC3241E561E3E5
:100D200071E0CE0105960E9460050F900F900F9024
:100D30000F900F900F90811129C040E061E371E0A6
:100D4000CE0105960E946005882389F08D8D9E8DC9
:100D5000AF8DB8A1892B8A2B8B2B29F4CE01059658
:100D60000E944E1D29C0CE0105960E944E1D0F5FA8
:100D70001F4F0E3F9FEF190748F263E178E087ECC1
:100D800093E00E948C2F80E090E018C0CE01059681
:100D90000E944E1D0F5F1F4F602F83E090E00E9466
:100DA000E70484E090E00E94E504811729F0612FB8
:100DB00084E090E00E94E70481E391E0A4960FB6FE
:100DC000F894DEBF0FBECDBFDF91CF911F910F9181
:100DD000FF90EF90DF90CF900895C0E0D0E0082F13
:100DE00010E0C017D107B4F461E085E00E941D2F28
:100DF00068EC70E080E090E00E94582E60E085E0B2
:100E00000E941D2F68EC70E080E090E00E94582E58
:100E10002196E7CF60ED77E080E090E00E94582EC9
:100E2000C0E0D0E0DECFCF93C82F61E778E087EC59
:100E300093E00E948C2FC73069F028F4C630B1F4DB
:100E400067E678E009C0C83071F0C93079F467E42A
:100E500078E002C06BE578E087EC93E00E948C2F8D
:100E600083E00E94ED0661E578E0F6CFCF9108952A
:100E7000CF92DF92EF92FF926B017C016E2D89E0A1
:100E800090E00E94E7049927F7FC9A958F2D7E2D1C
:100E90006D2D8AE090E00E94E7046C2D8BE090E0DD
:100EA000FF90EF90DF90CF900C94E70460E875E23C
:100EB00080E090E00E94380760E082E090E00E94CD
:100EC000E7046AE185E090E00E94E70463E086E0E1
:100ED00090E00E94E70461E087E090E00E94E70470
:100EE00061E088E090E00E94E70460E08CE090E040
:100EF0000C94E704CF93DF9389E090E00E94E5042F
:100F0000C82F8AE090E00E94E504D82F8BE090E0A3
:100F10000E94E5044D2F50E060E070E0762F652FD1
:100F2000542F4427482B6C2BCB01BA01DF91CF9172
:100F300008950F931F930E947A078B019C010C5216
:100F4000114021093109053111442F40310548F480
:100F50006093710170937201809373019093740197
:100F600012C080E895E2A0E0B0E080937101909318
:100F70007201A0937301B093740160E875E280E0A0
:100F800090E00E94380782E090E00E94E5048630FD
:100F900018F48093700107C01092700160E082E045
:100FA00090E00E94E70485E090E00E94E5049FEF56
:100FB000980F9E3F18F480936F0108C08AE18093D8
:100FC0006F016AE185E090E00E94E70486E090E02E
:100FD0000E94E50480936E018F3F41F483E080938B
:100FE0006E0163E086E090E00E94E70487E090E015
:100FF0000E94E504823018F480936D0108C081E0FE
:1010000080936D0161E087E090E00E94E70488E052
:1010100090E00E94E504823018F480936C0108C0CF
:1010200081E080936C0161E088E090E00E94E70439
:1010300090916D0180910001913011F4826001C0A6
:101040008D7F8093000190916C018091000191301F
:1010500011F4816001C08E7F809300018CE090E0EC
:101060000E94E504823028F480936B011F910F9158
:10107000089510926B0160E08CE090E01F910F9159
:101080000C94E704BF92CF92DF92EF92FF920F93FE
:101090001F93CF93DF93CDB7DEB7C057D1090FB6FB
:1010A000F894DEBF0FBECDBFCE018A960E94FC052C
:1010B00060E085E791E00E948C05811103C088E023
:1010C0000E94130766ED77E0CE018B599F4F0E9477
:1010D000873241E0BE016B597F4FCE018E960E9450
:1010E0006005882389F0CE018E960E946A228111C4
:1010F0000BC061EC77E087EC93E00E94BE2FCE013D
:101100008E960E944E1D84C049E1BE016B597F4FEF
:10111000CE018E960E9460050E947A07182F092F33
:1011200085E090E0E0966FAFE097E1967FAFE197C2
:101130000E94E504F82E86E090E00E94E504E82E87
:1011400082E090E00E94E504D82E87E090E00E94C3
:10115000E504C82E88E090E00E94E504B82E8CE0FB
:1011600090E00E94E5041F928F931F92BF921F92FE
:10117000CF921F92DF921F92EF921F92FF920F93D6
:101180001F93E1967FADE1977F93E0966FADE09777
:101190006F938AEA97E09F938F938E01025B1F4FB4
:1011A0001F930F930E94CC32F80101900020E9F7C1
:1011B000AF0141505109401B510BB801CE018E9631
:1011C0000E94CD1FCE018A960E94BA2F60E877E078
:1011D0000D541109C8010E948732F80101900020C6
:1011E000E9F7AF0141505109401B510BB801CE0145
:1011F0008E960E94CD1FCE018E960E94FE1CCE01BF
:101200008E960E944E1D0FB6F894DEBF0FBECDBF66
:10121000C059DF4F0FB6F894DEBF0FBECDBFDF91D0
:10122000CF911F910F91FF90EF90DF90CF90BF90E3
:10123000089568E275E087EC93E00E94BE2F68E1B4
:1012400075E087EC93E00E94BE2F6BEF74E087ECB3
:1012500093E00E94BE2F6CEC74E087EC93E00E9458
:10126000BE2F64EA74E087EC93E00E94BE2F60E733
:1012700074E087EC93E00E94BE2F63EB73E087EC91
:1012800093E00E94BE2F63E873E087EC93E00E9436
:10129000BE2F63E673E087EC93E00E94BE2F64E20A
:1012A00073E087EC93E00E94BE2F6EEF72E087EC54
:1012B00093E00E94BE2F69ED72E087EC93E00C94FE
:1012C000BE2FCF9382E090E00E94E504C82F63E632
:1012D00072E087EC93E00E94BE2F6FE472E087EC2F
:1012E00093E00E948C2FC11103C066E472E009C034
:1012F000C13019F46AE372E004C0C23031F462E331
:1013000072E087EC93E00E948C2F87EC93E00E94C0
:10131000BA2F6CE072E087EC93E00E948C2F4AE0D9
:1013200050E060916F0187EC93E00E94BC3068E070
:1013300072E087EC93E00E948C2F4AE050E06091CD
:101340006E0187EC93E00E94C3306DEF71E087EC93
:1013500093E00E94BE2F69EE71E087EC93E00E945B
:10136000BE2F62ED71E087EC93E00E94BE2F60EC2F
:1013700071E087EC93E00E94BE2F67EA71E087EC92
:1013800093E00E94BE2F6FE871E087EC93E00E942B
:10139000BE2F60E771E087EC93E00E94BE2F68E605
:1013A00071E087EC93E00E94BE2F66E671E087EC67
:1013B00093E00E948C2F8DED95E00E94092D892BE2
:1013C000D1F387EC93E00E94CA04813341F465E5D0
:1013D00071E087EC93E00E94BE2F60E009C0823389
:1013E00071F461E471E087EC93E00E94BE2F61E04C
:1013F00082E090E00E94E704CF910C94420883338E
:1014000041F462E371E087EC93E00E94BE2F62E05A
:10141000EFCF843389F464E171E087EC93E00E94BC
:10142000BE2F60E083E090E00E94E70460E084E08B
:1014300090E0CF910C94E704853321F565EF70E0DF
:1014400087EC93E00E948C2F8DED95E00E94092D92
:10145000892BD1F387EC93E00E94CA0480936F013B
:10146000682F85E090E00E94E7040E9442086CED3E
:1014700070E087EC93E00E948C2F4AE050E060918E
:101480006F0128C0863359F56FE970E087EC93E06F
:101490000E948C2F8DED95E00E94092D892BD1F3B0
:1014A00087EC93E00E94CA0460ED680F6F3F61F320
:1014B00060936E0186E090E00E94E7040E9442087B
:1014C00068E770E087EC93E00E948C2F4AE050E0E0
:1014D00060916E0187EC93E0CF910C94C330883714
:1014E00009F0F5CE60E770E087EC93E0CF910C94C3
:1014F000BE2FCF93FC0120E030E0A901C19180ED27
:101500008C0F8A3098F4AAE0B0E00E9440322C2F71
:10151000332727FD309520533109442737FD409567
:10152000542F260F371F481F591FE8CFCA01B90192
:10153000CF9108953F924F925F926F927F928F92D8
:101540009F92AF92BF92CF92DF92EF92FF920F9352
:101550001F93CF93DF93CDB7DEB7CE54D1090FB62B
:10156000F894DEBF0FBECDBFCE0101960E94FC05F0
:1015700060E085E791E00E948C05811103C088E05E
:101580000E94130761EE77E0CE01CC960E9487326D
:1015900040E0BE01645C7F4FCE0105960E9460056D
:1015A000882341F07E0135E2E30EF11C00E010E0FB
:1015B000570113C0CE0105960E944E1D0E9442089D
:1015C00034C190ED980F9A3078F4F70181937F0140
:1015D0000F5F1F4F0731110539F0CE0105960E94AC
:1015E00069058C3271F7F1CFCE0105960E944E1D30
:1015F00020E040E0712C992493948824839483E024
:10160000682E9AE1592E312C30E8C32E35E2D32EC4
:10161000E12CF12C842F90E08017910784F08091C9
:10162000710190917201A0917301B0917401C8167B
:10163000D906EA06FB0609F086C080E095C0FE01E7
:10164000EA5BFF4F30E0432E440E842D90E0D5013D
:10165000A80FB91F5C915C3241F0801791072CF400
:10166000373019F051933F5FEECFE6E4F0E0EC0F36
:10167000FD1FE30FF11D1082CE018A5B9F4F2F9655
:101680002FAF2F970E9460322F962FAD2F972111E9
:101690001BC0CE018A5B9F4F0E94790A6B017C01BF
:1016A000FCE2CF1AF1E0DF0AE108F1082F962FAD36
:1016B0002F9735E1C31631E4D3063FE0E306F1048A
:1016C00070F56B017C013BC0213021F4181674F5D4
:1016D000582E35C0223021F48F3F59F1682E2FC08B
:1016E000233031F49FEF980F923030F5382E27C019
:1016F000243031F4882E882311F1882483941FC06C
:10170000253031F4982E8823D1F09924939417C072
:10171000263009F084CF823088F4782E10C0B0E8EB
:10172000CB2EB5E2DB2EE12CF12C09C0AAE15A2E1A
:1017300006C0F3E06F2E03C0312C01C0712C2F5F67
:1017400041E0440D67CFC701B6010E943807C0923F
:101750007101D0927201E0927301F0927401C7019D
:10176000B6010E94180581E090917001391641F090
:1017700030927001632D82E090E00E94E70481E0E6
:1017800090916F01591641F050926F01652D85E0DF
:1017900090E00E94E70481E090916E01691641F0AB
:1017A00060926E01662D86E090E00E94E70481E081
:1017B00090916D01891641F080926D01682D87E04E
:1017C00090E00E94E70481E090916C01991641F04D
:1017D00090926C01692D88E090E00E94E70481E01E
:1017E00090916B01791641F070926B01672D8CE03E
:1017F00090E00E94E70401C081110E94420890918C
:101800006D0180910001913011F4826001C08D7FE3
:101810008093000190916C0180910001913011F44E
:10182000816001C08E7F80930001C25BDF4F0FB6E5
:10183000F894DEBF0FBECDBFDF91CF911F910F9106
:10184000FF90EF90DF90CF90BF90AF909F908F90E0
:101850007F906F905F904F903F900895EEE5F1E09C
:1018600080E0DF0112972D913C91232B19F090819C
:1018700091118F5F339691E0ED36F90791F7089556
:101880009EE1EEE3F1E0DF011D929A95E9F78530E4
:10189000D0F490E0FC01EE0FFF1FE80FF91FE45AAF
:1018A000FE4F608171816115710569F042814423A9
:1018B00051F04F3110F450E002C04EE150E08EE3A1
:1018C00091E00C94AB3280E090E008950F931F9369
:1018D000CF93DF931F92CDB7DEB78C0169830E944F
:1018E0002E0C6981853060F4282F30E0F901EE0F6D
:1018F000FF1FE20FF31FE45AFE4F11830083628340
:101900000F90DF91CF911F910F910895EF92FF9269
:101910000F931F93CF93DF93EC01E62E8FE0ECE55E
:10192000F1E0DF011D928A95E9F7FF24F39440E08E
:10193000062F10E0FE14F8F42F2D30E0FE01E20F28
:10194000F31F8081803229F0C90101968017910729
:1019500081F42F5F3F4F2017310709F4FE2C6F2DC4
:10196000641BCE01840F911D0E94660C41E04F0D57
:10197000F42EF394DFCFDF91CF911F910F91FF9061
:10198000EF900C942E0CFC0170E09F01281B390B8A
:101990002617370764F42191332727FD309520530C
:1019A00031092A30310588F380E090E008950895E8
:1019B000CF93DF93DB01FC01EB013991BE013111C3
:1019C00005C040E050E020E030E017C0EC01299174
:1019D000CE012A32B1F3231769F32F3359F324C010
:1019E00080818A3271F4CF01019621812223F1F0A6
:1019F0009D012F5F3F4FAC01FC019C919111F0CFF5
:101A00000DC0891711F08F3321F4CF010196119683
:101A1000F3CFD9012F5F3F4FCA01EECF91919A3298
:101A2000E9F381E0992319F080E001C081E0DF91C2
:101A3000CF910895CF92DF92EF92FF920F931F9371
:101A4000CF93DF93CDB7DEB7E1970FB6F894DEBF43
:101A50000FBECDBF8C017B01D42EC22ECE010196CC
:101A60000E94FC0540E0B801CE0105960E94661B6D
:101A7000882309F467C0BE016B5D7F4FCE010596D8
:101A80000E94EF25882339F08D81982F907741F4BB
:101A9000982F987129F4CE0105960E944E1DE2CF31
:101AA00083FF0AC0BE016B5D7F4FC7010E94D80C47
:101AB000882389F301E001C002E010E01C1541F029
:101AC0006EE670E087EC93E00E948C2F1F5FF6CFEC
:101AD000BE016B5D7F4F87EC93E00E94B12F182F02
:101AE0008D8184FF07C06CE670E087EC93E00E9474
:101AF0008C2F180F8D8183FF1CC0D2FE1AC01E30A0
:101B000040F46AE670E087EC93E00E948C2F1F5F40
:101B1000F6CF68E670E087EC93E00E948C2F4D8D45
:101B20005E8D6F8D78A12AE030E087EC93E00E9413
:101B3000AF3087EC93E00E94BA2FCE0105960E9449
:101B40004E1D802FE1960FB6F894DEBF0FBECDBFBD
:101B5000DF91CF911F910F91FF90EF90DF90CF9089
:101B600008958F929F92AF92BF92CF92DF92EF92A1
:101B7000FF920F931F93CF93DF93CDB7DEB7A49758
:101B80000FB6F894DEBF0FBECDBF7C016B01B42E43
:101B9000A22ECE0101960E94FC0540E050E0BA0161
:101BA000C7010E94031A8B2D8870982E72E0872E31
:101BB0008A0C2A2D4B2DB601C7010E941A0D8823CD
:101BC000A9F18230B1F79920A1F3809130018230E0
:101BD00080F7F701008911892289338965E03695FC
:101BE0002795179507956A95D1F7A8014150510996
:101BF00020E0B701CE0105960E94CC1B8823C9F2D4
:101C0000809130018F5F80933001282D4B2DB601DC
:101C1000CE0105960E94B10D8091300181508093D4
:101C20003001CE0105960E944E1DC3CFA4960FB67B
:101C3000F894DEBF0FBECDBFDF91CF911F910F9102
:101C4000FF90EF90DF90CF90BF90AF909F908F90DC
:101C50000895CF93C82F0E94532F892B11F060E075
:101C600001C061E08C2FCF910C941D2FAF92BF92D9
:101C7000CF92DF92EF92FF920F931F93CF93DF9358
:101C80001F92CDB7DEB75C01C62E062F10E0A8016B
:101C900060E070E00E94A432D12C780181E0E81A63
:101CA000F1080D2D10E00E151F050CF04BC08DED49
:101CB00095E00E94092D892BD1F387EC93E00E94D7
:101CC000CA04282F85E029830E94290E2981283003
:101CD00011F02F37C1F4DD2021F3DA94F501ED0D79
:101CE000F11D108268E087EC93E00E94B32F65E35A
:101CF00075E087EC93E00E948C2F68E087EC93E01E
:101D00000E94B32FCECF8091000180FF07C0622FC9
:101D100087EC93E029830E94B32F29812D3049F469
:101D200087EC93E00E94BA2FF501E00FF11F1082BB
:101D300009C02A3009F4B5CFF501E00FF11F208367
:101D4000D394AFCF6C2DC5010E94860C8D2D0F90C2
:101D5000DF91CF911F910F91FF90EF90DF90CF9087
:101D6000BF90AF900895CF92DF92EF92FF92CF9302
:101D7000DF93CDB7DEB728970FB6F894DEBF0FBE5E
:101D8000CDBF0E947A076B017C0168EC72E087ECA2
:101D900093E00E948C2F2AE030E0B701A60187EC87
:101DA00093E00E944D3063EC72E087EC93E00E9478
:101DB000BE2F60EA72E087EC93E00E94BE2F6EE9CE
:101DC00072E087EC93E00E948C2F68E0CE010196D0
:101DD0000E94360E8981883719F466E972E013C0D3
:101DE000CE0101960E94790A6B017C01DC01CB01D6
:101DF0008C529140A109B10985319144AF40B105A0
:101E000098F068E872E087EC93E00E94BE2F289675
:101E10000FB6F894DEBF0FBECDBFDF91CF91FF901C
:101E2000EF90DF90CF9008956EE772E087EC93E03B
:101E30000E948C2F2AE030E0B701A60187EC93E0E6
:101E40000E944D306AE772E087EC93E00E94BE2F5B
:101E5000C701B6010E9438070E94420885E00E942F
:101E6000ED06CF9360E080E00E94E42E61E080E028
:101E70000E941D2F80E00E94532F019709F463C038
:101E80000E94A51761E08DE00E94E42E61E08DE0E4
:101E90000E941D2FC8E269E170E080E090E00E949E
:101EA000582E85E00E94290E80E00E94532F019752
:101EB00009F449C069E170E080E090E00E94582E8A
:101EC0008DE00E94290E80E00E94532F0197D9F1E6
:101ED000C15009F70E94560740E550E06AE085E7E7
:101EE00091E00E940606811103C086E00E9413075C
:101EF00060E085E791E00E948C05811103C088E0D5
:101F00000E9413070E9442080E94A51761E085E025
:101F10000E94E42E61E08DE00E94E42E61E085E005
:101F20000E941D2F61E08DE00E941D2F64EF71E083
:101F300080E090E00E94582E85E00E94290E8DE0FE
:101F40000E94290EF3CFCF91089561E085E00E94B1
:101F5000E42E83B7817F83BF83B7816083BF809185
:101F60007A008F7780937A0080E880BF8FE3809338
:101F70007E0083E080937F0080916400806880937E
:101F800064008091640088608093640080916400A4
:101F90008064809364008091640081608093640019
:101FA0000E94990760917101709172018091730193
:101FB000909174010E9418058091710190917201B5
:101FC000A0917301B0917401843F21E09207A105B3
:101FD000B105D4F49C01AD01E4E0220F331F441F8E
:101FE000551FEA95D1F760E074E284EF90E00E941B
:101FF0001E32215031093093C5002093C4008091D6
:10200000C0008D7F8093C00065E478E087EC93E0AA
:102010000E948C2F40E551E06AE085E791E00E9444
:102020000606811103C086E00E94130760E085E781
:1020300091E00E948C05811103C088E00E94130783
:1020400063E478E087EC93E00E948C2F0E949A0A68
:1020500080916B01811102C00C94310F0895BF92E1
:10206000CF92DF92EF92FF920F931F93CF93DF9364
:10207000CDB7DEB7C352D1400FB6F894DEBF0FBE66
:10208000CDBF8C01CE0193950E94FC0549E1B801BA
:1020900080E091E08C0F9D1F04960E9460058111E5
:1020A00003C089E00E941307C45EDE4F88819981D6
:1020B000AA81BB81CC51D140892B8A2B8B2B79F4FF
:1020C00040E050E0BA0100E011E00C0F1D1F0C5F72
:1020D0001F4FC8010E94031AC8010E94FE1C0E94E3
:1020E000292E6B017C016EEE77E087EC93E00E9475
:1020F0008C2F61E085E00E941D2F80916E01882366
:1021000041F0B12C00E011E00C0F1D1F0C5F1F4FC0
:102110008FC000E011E00C0F1D1F0C5F1F4FCE01A0
:1021200001960E94E9048823A9F0C050DF4FE8819E
:10213000F981C050D140AC0155270280F381E02DD8
:10214000BE016F5F7F4FCE019395099585E00E9498
:10215000290EE5CF0E94292E6C197D098E099F0951
:10216000653F714081059105D0F2C8010E94FE1CB7
:1021700060E085E00E941D2F809164008062809362
:10218000640080916400846080936400AAE0FA2E69
:1021900061E08F2D0E94E42E60E08F2D0E941D2FA4
:1021A000F3948EE0F812F4CF83B7816083BF8895F3
:1021B00083B78E7F83BF809164008B7F80936400A0
:1021C000809164008F7D809364000E94292E6B01B2
:1021D0007C01A5CFCE0101960E94E904382F882307
:1021E00089F1498120916F0142132AC0B394509123
:1021F0006E01FE01329621E0231730F461916413E1
:102200001CC0B394B5121AC0C050DF4FE881F981E9
:10221000C050D140AC0155270280F381E02DBE01B2
:102220006F5F7F4FCE019395099585E00E94290E3F
:1022300080916E01B81670F246C0B12C2F5FDCCFD2
:10224000B12CE2CF0E94292E6C197D098E099F09BD
:10225000653F71408105910558F3C8010E94FE1C3D
:1022600060E085E00E941D2F809164008062809371
:10227000640080916400846080936400FAE0FF2E23
:1022800061E08F2D0E94E42E60E08F2D0E941D2FB3
:10229000F3948EE0F812F4CF83B7816083BF889502
:1022A00083B78E7F83BF809164008B7F80936400AF
:1022B000809164008F7D809364000E94292E6B01C1
:1022C0007C01B12CB5CF00E011E00C0F1D1F0C5F9D
:1022D0001F4FC8010E94FE1C80916E01882379F077
:1022E000C45EDE4F488159816A817B81CC51D140E7
:1022F000481B510961097109C8010E94251F80E02E
:1023000091E08C0F9D1F04960E944E1D60E085E0B9
:102310000E941D2F6CEE77E087EC93E00E948C2FDB
:1023200081E0CD5DDE4F0FB6F894DEBF0FBECDBFAE
:10233000DF91CF911F910F91FF90EF90DF90CF90A1
:10234000BF900895CF93DF93CDB7DEB7E0970FB678
:10235000F894DEBF0FBECDBFCE0101960E94FC05F2
:1023600066E078E0CE0185960E94873241E1BE01A9
:102370006B5D7F4FCE0105960E946005811107C0FD
:1023800060EF77E087EC93E00E94BE2F08C0CE019B
:1023900005960E944E1DCE0185960E942F10E09654
:1023A0000FB6F894DEBF0FBECDBFDF91CF91089579
:1023B000CF93DF93CDB7DEB7C457D1090FB6F894EA
:1023C000DEBF0FBECDBFCE0101960E94FC0541E0ED
:1023D00061E071E085E791E00E94B20511E001E063
:1023E00093E6292E312C2C0E3D1E83E0280E311C45
:1023F000E3E6F0E0EC0FFD1F3896E596FFAFEEAF99
:10240000E5978091000183FF05C06AE187EC93E0C6
:102410000E94B32F111106C06EE777E087EC93E0BE
:102420000E948C2F6CE777E087EC93E00E948C2F62
:102430006EE1CE018B5B9F4F0E94360E811102C070
:1024400011E0DFCF80E00E94400C7C0167E777E07D
:102450000E947E32892B39F58091000181FF06C0F0
:102460006EE577E087EC93E00E94BE2F40E551E0F7
:102470006AE085E791E00E940606811103C086E0CC
:102480000E94130760E085E791E00E948C058111AE
:1024900003C088E00E9413078091000181FFD0CF24
:1024A00066E477E0D8C464E477E0C7010E947E3236
:1024B000892B19F40E941909C3CF6FE377E0C70194
:1024C0000E947E32892BB1F36AE377E0C7010E9454
:1024D0007E32892B19F40E94B30EB2CF66E377E007
:1024E000C7010E947E32892B19F40E946109A8CF8E
:1024F00063E377E0C7010E947E32892B49F5809122
:10250000000181FF0EC065E277E087EC93E00E9456
:102510008C2F4AE050E060917A0187EC93E00E94B2
:10252000C3300E942E0C813029F48AE2F7018083A7
:10253000118206C081E00E94400C7C010E94BA32E8
:1025400020E04CE0B7018CE993E00E94B10D78CF18
:1025500062E277E0C7010E947E32892BD1F481E0EC
:102560000E94400C7C01009709F4BAC31DA21EA270
:1025700021E0AC016CE973E0CE0185960E94981EC3
:1025800081115ECF8091000181FFAAC367E077E0EF
:102590009EC364E077E0C7010E947E32892BA9F4D4
:1025A00081E00E94400C7C01009709F499C30E94CD
:1025B0002E0C833009F0BBC360E077E0C7010E94B6
:1025C0007E32892B09F48EC3B2C36CEE76E0C7016C
:1025D0000E947E32892BB9F481E00E94400C7C017C
:1025E000009709F47DC369EE76E00E947E3240E0F8
:1025F000892B19F461E071E001C0B70185E791E032
:102600000E94B205C0C264EE76E0C7010E947E322D
:10261000892B09F0CEC081E00E94400C7C0100971C
:1026200009F45EC340E0BC01CE0105960E9460053E
:10263000811107C08091000181FF52C36FEC76E0E9
:1026400046C382E00E94400C009761F1FC010190BA
:102650000020E9F7BF0161507109681B790B0E94E6
:10266000C30C7C010097F1F00E94790AAB01BC0118
:10267000CE0105960E94031A811114C080910001B9
:1026800081FF0BC06DEB76E087EC93E00E948C2F0E
:10269000B70187EC93E00E94D02FCE0105960E94EF
:1026A0004E1D1EC383E00E94400C009791F0FC0178
:1026B00001900020E9F7BF0161507109681B790B97
:1026C0000E94C30C009729F00E94790A2B013C015B
:1026D00004C044244A94542C320184E00E94400CEB
:1026E000009791F0FC0101900020E9F7BF016150D3
:1026F0007109681B790B0E94C30C009729F00E9496
:10270000790A6B017C0104C0C12CD12C7601C394E1
:10271000812C912C54018394CE0105960E94690569
:10272000BC0197FD39C0481459046A047B04A0F128
:10273000F1E0CF16D104E104F10459F490EE960FC4
:102740009F3500F16A30F1F06D30E1F06BEB76E02F
:102750000EC082E0C816D104E104F10469F440E13E
:1027600050E087EC93E00E94BC3069EB76E087ECA8
:1027700093E00E948C2F0AC093E0C916D104E104B3
:10278000F10421F487EC93E00E949404EFEF8E1A99
:102790009E0AAE0ABE0AC0CFCE0105960E944E1D0B
:1027A0008091000183FD4CCE87EC93E00E94BA2F0C
:1027B00047CE63EB76E0C7010E947E32892B09F099
:1027C00082C081E00E94400C7C01009709F488C21D
:1027D00041E0BC01CE0105960E946005811107C051
:1027E0008091000181FF7CC26EE976E070C282E0D8
:1027F0000E94400C009709F449C0FC0101900020A0
:10280000E9F7BF0161507109681B790B0E94C30C85
:102810007C010097D9F10E94790AAB01BC01CE017D
:1028200005960E94031A811131C08091000181FF39
:1028300034CF6CE876E028CF6AE876E087EC93E066
:102840000E948C2F6EE1CE018B5B9F4F0E94360E53
:10285000182F882381F1E82EF12CE981FA8102807A
:10286000F381E02DA701BE016B5B7F4FCE01019686
:1028700009958E159F05A1F41D3140F442E050E00A
:1028800063E071E0CE0105960E94CD1F80910001AA
:1028900083FFD2CF6AE187EC93E00E94B32FCCCFC5
:1028A0008091000181FF09C064E776E087EC93E046
:1028B0000E94BE2F02C011E001C010E0CE010596BB
:1028C0000E944E1D9ECD6FE676E0C7010E947E32CB
:1028D000892B91F581E00E94400C009709F400C219
:1028E00040E0BC01CE0105960E946005882381F07E
:1028F0004D8D5E8D6F8D78A12AE030E087EC93E0FE
:102900000E94AF30CE0105960E944E1D11E00BC013
:102910008091000181FF06C06CE676E087EC93E0D1
:102920000E948C2F10E08091000183FD6ACD87EC1E
:1029300093E00E94BA2F65CD67E676E0C7010E945A
:102940007E32892B09F0D9C06AE576E087EC93E006
:102950000E948C2F8091C103823039F0833041F086
:10296000813049F466E576E008C062E576E005C0AE
:102970006DE476E002C065E476E087EC93E00E94C7
:10298000BE2FAE014D595F4F6AE08CEB93E00E9481
:10299000DC2B811103C066E376E000C164E276E0DF
:1029A00087EC93E00E948C2F40E150E0A4966FAD3D
:1029B000A49787EC93E00E94C3306BE176E087EC4C
:1029C00093E00E948C2FA5966FADA59787EC93E0BE
:1029D0000E94B32FA6966FADA69787EC93E00E9456
:1029E000E22F61E176E087EC93E00E948C2F710189
:1029F000F70161917F0187EC93E00E94B32FE59688
:102A00008EAD9FADE597E816F90691F765E076E0A3
:102A100087EC93E00E948C2FAC966FADAC976295DB
:102A20006F704AE050E087EC93E00E94BC3063E0B6
:102A300076E087EC93E00E948C2FAC966FADAC975C
:102A40006F704AE050E087EC93E00E94C33063EF80
:102A500075E087EC93E00E948C2FE0964CAD5DAD65
:102A60006EAD7FADE0972AE030E087EC93E00E9406
:102A7000DA306EED75E087EC93E00E948C2FE296E1
:102A80006FADE2976F704AE050E087EC93E00E94F0
:102A9000BC306CED75E087EC93E00E948C2FE296E1
:102AA0006FADE29762956F7070E06053784FE1967A
:102AB0008FADE1978F7090E1899F600D711D11249A
:102AC0004AE050E087EC93E00E9497308CEB93E073
:102AD0000E94032C6B017C01611571058105910534
:102AE00009F496C1AE014B5D5F4F69E08CEB93E05A
:102AF0000E94DC2B811193C18BC168EB75E0C7018B
:102B00000E947E32892B09F49BCC62EB75E0C701F1
:102B10000E947E32892B31F4E091C503F091C60307
:102B20000995DEC06EEA75E0C7010E947E32892BEE
:102B3000D9F481E00E94400C7C01009709F4D0C0D8
:102B400041E5BC01CE0105960E946005882329F06D
:102B5000CE0105960E944E1D73CC8091000181FF2D
:102B6000BFC068E975E0B3C061E975E0C7010E94C4
:102B70007E32892B51F481E00E94400C009709F4C9
:102B8000AFC00E942F10182F3CCC6DE875E0C70134
:102B90000E947E32892B39F46FE675E087EC93E072
:102BA0000E948C2F9DC06AE675E0C7010E947E32AC
:102BB000892B41F581E00E94400C7C01009709F4CB
:102BC0008FC067E675E00E947E32D82E811106C064
:102BD00000936C018091000181600DC063E675E097
:102BE000C7010E947E32D82E811107C010926C015D
:102BF000809100018E7F8093000160916C0188E0DC
:102C000090E02EC06BE575E0C7010E947E32892BF3
:102C100081F581E00E94400C7C01009709F460C0BE
:102C200068E575E00E947E32D82E811106C00093BF
:102C30006D018091000182600DC064E575E0C701FF
:102C40000E947E32D82E811107C010926D018091B2
:102C500000018D7F8093000160916D0187E090E01D
:102C60000E94E7040E94420811E0DD2009F4C9CB6C
:102C700037C060E575E0C7010E947E32892B09F5F7
:102C800081E00E94400C7C01009751F16DE475E0F9
:102C90000E947E3210910001811103C0212F286013
:102CA00009C069E475E0C7010E947E32811104C049
:102CB000212F277F2093000111E0882309F4A1CB65
:102CC0000FC08091000181FF0BC067E375E087ECC6
:102CD00093E00E948C2FB70187EC93E00E94D02FE5
:102CE00010E08FCB82E00E94400C20E0AC016CE948
:102CF00073E0CE0105960E94571D882389F3CE010B
:102D000005960E946A1C11C0CE0105960E944E1DB8
:102D100041E0B701CE0105960E946005882309F4C1
:102D2000CCCDCE0105960E946A22182FC7CD20E097
:102D3000A7016CE973E0CE0105960E94571D882318
:102D400041F08D81807701F3CE0105960E943A1CF7
:102D5000ECCFC7010E94BA3240E061E071E085E744
:102D600091E00E94B205412C512C320140E06CE907
:102D700073E0CE0105960E94661B882381F18D8148
:102D800083FF28C0BE016B5D7F4FCE0105960E9478
:102D9000EF258823F9F0BE016B5D7F4FC7010E94CC
:102DA000D80C8823B9F0CE0105960E944E1D41E053
:102DB000BE016B5D7F4FCE0105960E946005CE017E
:102DC00005960E946A22882329F09FEF491A590A22
:102DD000690A790ACE0105960E944E1DC7CF8091DF
:102DE000000181FF0EC02AE030E0B301A20187ECB0
:102DF00093E00E94AF306FEE76E087EC93E00E94A4
:102E0000BE2F11E045284628472809F0FACA68CFA6
:102E10006DEC75E087EC93E00E94BE2F61CF61EC12
:102E200075E087EC93E00E948C2FC701B6010E94E9
:102E300019312DEB37E346E05AE30E94A7310E9497
:102E4000ED30AB01BC012AE030E087EC93E00E945A
:102E5000AF306DEB75E087EC93E00E94BE2FF0CAB7
:102E600080917001811104C00E9440060E942F10C1
:102E700080917001813011F40E94A2110E94D8113A
:102E80001092CA031092C90388EE93E0A0E0B0E06C
:102E90008093CB039093CC03A093CD03B093CE0348
:102EA00082E191E09093C8038093C70341E052E030
:102EB00063ED73E08DED95E00E947C2D10927A0118
:102EC00010929C0310929D0384E68093BC031092A1
:102ED000C10380E58093C2031092C3030895CF938A
:102EE000CFB7F8948091D805811127C0EAEAF8E0BD
:102EF0008491E6E9F8E09491E82FF0E0EE0FFF1FEF
:102F0000E853F74FA591B4918C91892321F461E0A6
:102F10008AE00E941D2F61E08AE00E94E42E8CB5B9
:102F200080618CBD8CB580648CBD61E08DE00E94B9
:102F3000E42E61E08BE00E94E42E8091D8058F5F43
:102F40008093D805CFBFCF9108959FB7F894809113
:102F5000D805882319F081508093D8058091D80531
:102F6000811105C08CB58F7B8CBD1092D7059FBF9A
:102F7000089580960C940A26FC01828184608283E5
:102F80009F01245F3F4F44855585668577858681FF
:102F900097810C949B279F92AF92BF92CF92DF9222
:102FA000EF92FF920F931F93CF93DF93EC018881F1
:102FB00085FF02C0912C58C088899989AA89BB894C
:102FC00081159E4FAF41B105A8F7CE010E94BC17F5
:102FD000982E882379F34C855D856E857F858E815B
:102FE0009F810E9493266B017C018E819F8125E049
:102FF000B701A60180960E9454265C010097D1F289
:1030000080E092E0F5019C01119221503040E1F7FF
:1030100011E0EE81FF810281101780F49501B70164
:10302000A601410F511D611D711D808191810E947A
:10303000C12C882309F4BECF1F5FEBCF10E020E046
:1030400030E089E0000F111F221F331F8A95D1F74E
:10305000488959896A897B89400F511F621F731FF4
:10306000488B598B6A8B7B8B892DDF91CF911F9178
:103070000F91FF90EF90DF90CF90BF90AF909F9017
:103080000895CF93DF93EC01262F4C895D896E89DB
:103090007F898E819F8180960E9454269C01009793
:1030A00061F08C819D818F70992745E0880F991F71
:1030B0004A95E1F7820F931F02C080E090E0DF9114
:1030C000CF910895CF93DF93DC01FC0190E048E0BD
:1030D00080E05EE220812032C1F0983031F4EB01D3
:1030E000C80FD11D58838F5F40E120813FEB320F25
:1030F0003A3130F41C963C911C97342309F0205E41
:10310000EB01C80FD11D28838F5F9F5F31969B30E5
:1031100009F7FB01E80FF11D1082DF91CF910895AF
:10312000FC018081811114C080E2DF01982F1D9283
:103130009A95E9F777836683DB0115969C91903128
:1031400019F0903229F480E4808381E0828308952D
:1031500080E008954F925F926F927F928F929F923C
:10316000AF92BF92CF92DF92EF92FF920F931F9395
:10317000CF93DF93EC014B017A0188818823D9F04A
:103180009A8190FF18C01DC0D380D822A114B10429
:1031900009F081C0D1107FC0452B462B472B09F485
:1031A00064C04C855D856E857F859201CF010E944C
:1031B000AB2687FF6AC08981826089838FEF9FEF8A
:1031C000C3C083FF15C0888D998DAA8DBB8D48899A
:1031D00059896A897B89841B950BA60BB70BA701BC
:1031E00060E070E0481759076A077B07A0F012C03B
:1031F00085FF11C0EE81FF818681978155E0880FA0
:10320000991F5A95E1F728893989821B930B8E15EE
:103210009F0508F47C0187012E018CE0480E511CAB
:10322000612C42E0742E0115110509F455C048893E
:1032300059896A897B895A0181E0B8222881EE8107
:10324000FF81DB01CA0139E0B695A795979587956F
:103250003A95D1F725FF98CF448D558D668D778DA2
:10326000480F591F6A1F7B1F24C026FF05C0848D8D
:10327000958DA68DB78D04C08C8D9D8DAE8DBF8D27
:103280008C879D87AE87BF8706C0811104C0888167
:10329000807711F590CF4C855D856E857F858E8119
:1032A0009F810E949326AB01BC014D0D511D611DF4
:1032B000711DEE81FF81A114B10471F5011582E049
:1032C000180750F183A194A1A5A1B6A148175907E9
:1032D0006A077B0729F420C0C701801B910B34C00B
:1032E0009401808191810E94AA2B882309F463CFE5
:1032F000C12CF2E0DF2E8C0C9D1C88899989AA894B
:10330000BB898C0D9D1DA11DB11D888B998BAA8B2E
:10331000BB8B0C191D0987CFC3018A199B09680152
:103320008017910708F46C0120E0CF0180960E947D
:103330005426009709F43FCFBC016A0D7B1DA601FE
:10334000C4010E949B32D7CFDF91CF911F910F9183
:10335000FF90EF90DF90CF90BF90AF909F908F90B5
:103360007F906F905F904F900895FF920F931F93FF
:10337000CF93DF931F92CDB7DEB78C01262FFC01D0
:103380004089518962897389DB01CA01E5E0B695FC
:10339000A79597958795EA95D1F7F82FFF70FF2E9F
:1033A00011F0211117C041E050E0BE016F5F7F4F67
:1033B000C8010E94AA18813019F080E090E01CC07A
:1033C000F8014089518962897389415E5F4F6F4F6F
:1033D0007F4F05C0405E5F4F6F4F7F4FF801408BBE
:1033E000518B628B738BF801868197818796F0E20F
:1033F000FF9E800D911D11240F90DF91CF911F91A1
:103400000F91FF9008954F925F926F927F928F92EB
:103410009F92AF92BF92CF92DF92EF92FF920F9363
:103420001F93CF93DF93EC016A017B014C845D8491
:103430006E847F84A881AA2309F491C00889198920
:103440002A893B89401751076207730709F48DC029
:10345000411551056105710529F41C861D861E86DE
:103460001F8678C0A3FF0BC0488D598D6A8D7B8D58
:103470004C155D056E057F0508F471C014C0A5FFED
:1034800012C0EE81FF8186819781F5E0880F991F38
:10349000FA95E1F7A0E0B0E084179507A607B70713
:1034A00008F45DC057C0EE81FF81848190E00996E9
:1034B000B901A8014150510961097109082E04C0E0
:1034C00076956795579547950A94D2F74601570127
:1034D000B1E08B1A9108A108B10804C0B694A79472
:1034E000979487948A95D2F784169506A606B70610
:1034F00020F0012B022B032B81F4A6FF05C0848D45
:10350000958DA68DB78D04C08C8D9D8DAE8DBF8D94
:103510008C879D87AE87BF8704C0841A950AA60A48
:10352000B70A8E01045F1F4F81149104A104B104F6
:1035300089F04C855D856E857F8598018E819F81A0
:103540000E94AB2691E0891A9108A108B1081816CB
:103550005CF305C0C88AD98AEA8AFB8A06C04C8611
:103560005D866E867F8680E001C081E0DF91CF912D
:103570001F910F91FF90EF90DF90CF90BF90AF9091
:103580009F908F907F906F905F904F9008958F9253
:103590009F92AF92BF92FF920F931F93CF93DF93AF
:1035A000EC01F22E80E2DE011D928A95E9F7FB0123
:1035B000868197819F838E835D834C83848C958CD9
:1035C000A68CB78C88869986AA86BB86FC01B7969E
:1035D0004F705527B5E0440F551FBA95E1F7E40F3A
:1035E000F51F338533FD60C037713883238528711B
:1035F00011F4386038830B832F2D2370213051F064
:1036000028F0223009F050C023E005C0F5FC4CC082
:1036100021E001C022E02A833A8131FF04C02881E1
:10362000217109F041C02F2D2878232B2A83DC013A
:1036300093964D915D916D917C9196974C8B5D8B9E
:103640006E8B7F8B4489558960E070E0BA01552705
:103650004427028D138D20E030E0402B512B622B4C
:10366000732BF5FE0AC04115510561057105F9F08E
:103670000E94332881111BC017C04C8F5D8F6E8F45
:103680007F8F448D558D668D778D488F598F6A8FCA
:103690007B8FF2FE10C0488D598D6A8D7B8DCE01D7
:1036A0000E94031A811107C0188280E005C08A8138
:1036B00084608A83EECF81E0DF91CF911F910F91DB
:1036C000FF90BF90AF909F908F9008958F929F92A0
:1036D000AF92BF92DF92EF92FF920F931F93CF931F
:1036E000DF937C01EB01D42EFC018081811138C075
:1036F00088818077A9F1088919892A893B890F7106
:10370000112722273327012B022B032B49F500E039
:1037100010E088889988AA88BB8860E0CE010E9462
:10372000B5190097E9F0FC0120812223C9F02E325F
:1037300011F400E0EECF253EE1F3338533FD07C001
:10374000002381F00E94302118130AC00BC03F30C3
:1037500081F726FFDECF022F0F71FC011585D9CF2F
:1037600080E00EC0B501A40115E0769567955795E8
:1037700047951A95D1F72D2DBE01C7010E94C71A92
:10378000DF91CF911F910F91FF90EF90DF90BF904D
:10379000AF909F908F900895BF92CF92DF92EF925B
:1037A000FF920F931F93CF93DF936C01EB017A018C
:1037B000122FFC018081811119C088818077B1F0BE
:1037C00026FD14C0E114F10449F1A701415051094B
:1037D00060E070E005E0440F551F661F771F0A95F3
:1037E000D1F7CE010E94031A811102C080E038C0D7
:1037F00060E0CE010E94B519FC010097B9F3838502
:103800008F3091F480818F71813071F4B5840E2DE9
:10381000F5E1EF16F10450F004E108C040E050E09B
:10382000BA01CE010E94031A00E0B12C60E0CE0183
:103830000E94B5190097D1F2FC012081253EB1F21A
:103840002223A1F22E3291F2002321F00E94302196
:10385000B812CCCF212FA701BE01C6010E94C71A02
:10386000DF91CF911F910F91FF90EF90DF90CF905C
:10387000BF900895CF93DF93EC01888184FF26C029
:1038800040E050E0BA01CE010E94031A61E0CE018F
:103890000E94B519009721F48981882369F016C028
:1038A000FC012081222341F0253E81F32E3271F369
:1038B000838583FDEBCF0AC088E088838A8182609C
:1038C0008A83CE01DF91CF910C946A2280E0DF9150
:1038D000CF910895CF92DF92EF92FF920F931F93B3
:1038E000CF93DF93CDB7DEB7A0970FB6F894DEBFC6
:1038F0000FBECDBF8C0119821A82FC0180818077B6
:1039000011F480E06CC040E050E0BA01C8010E94B0
:10391000031AF801C088D188E288F38860E0C80102
:103920000E94B519009731F4F8018181882309F4C8
:103930004DC0E7CFFC012081222309F447C0253E7A
:1039400041F32E3231F3838583FDE3CF45E0F694D6
:10395000E794D794C7944A95D1F720E0A601B8011F
:10396000CE0101960E94CC1B882359F2898184FFE5
:1039700005C0CE0101960E946A1C07C08B8182603F
:103980008B83CE0101960E946A22882309F4B9CF65
:10399000FFEFCF1ADF0AA60160E070E035E0440FC8
:1039A000551F661F771F3A95D1F7F80180899189D5
:1039B000A289B38984179507A607B70709F4A9CF89
:1039C000C8010E94031A8111A4CF9BCFF801808106
:1039D000807621F4C8010E943A1C01C081E0A096C3
:1039E0000FB6F894DEBF0FBECDBFDF91CF911F9110
:1039F0000F91FF90EF90DF90CF9008950F931F935A
:103A0000CF93DF93EC018881882309F441C08A8138
:103A100082FF38C061E0CE010E9441188C010097FE
:103A200029F489818160898380E033C0FC01808131
:103A3000853EB9F3888183FF08C0488D598D6A8D12
:103A40007B8D448F558F668F778F4C8D5D8D6E8DFE
:103A50007F8DF801538F428F758B648BE091D90570
:103A6000F091DA05309759F0B8016A5E7F4FC801CE
:103A700048960995F801808D918D938B828B8A8170
:103A80008B7F8A838E819F810E94B917882349F298
:103A900081E0DF91CF911F910F910895CF93DF9334
:103AA000EC010E94FE1C1882DF91CF910895CF9205
:103AB000DF92EF92FF920F931F93CF93DF93CDB7D7
:103AC000DEB7E3970FB6F894DEBF0FBECDBF8C0113
:103AD0007B015BAB4AABD22E19821A82FC0180813A
:103AE000882311F080E059C0FB0180818077D1F3F9
:103AF000EAA9FBA980818F32D9F4EAA9FBA98081C8
:103B00008F3221F43196FBABEAABF7CFF701668138
:103B10007781811104C0C8010E9490183EC0CE0177
:103B200001960E9490188823E9F2CE0101967C014B
:103B300050E2C52EAE014E5C5F4FBE016F5D7F4F00
:103B40008AA99BA90E946F21882361F2EAA9FBA997
:103B500080818823D1F020E0AE014F5D5F4FB70137
:103B6000C8010E94A123882309F4BCCFF801DE011B
:103B700011968C2D01900D928A95E1F7C8010E9453
:103B80004E1DFE0131967F01D5CF2D2DAE014F5D2B
:103B90005F4FB701C8010E94A123E3960FB6F894C6
:103BA000DEBF0FBECDBFDF91CF911F910F91FF9070
:103BB000EF90DF90CF900895AF92BF92CF92DF92B7
:103BC000EF92FF920F931F93CF93DF93CDB7DEB7A2
:103BD000A0970FB6F894DEBF0FBECDBF8C017B015E
:103BE000FB018081807709F491C022E5C8010E9421
:103BF000A123882309F48AC081E0F801828360E16F
:103C0000D62ED082C8010E94CB17882309F47EC02B
:103C1000F80184859585A685B785848F958FA68FB5
:103C2000B78F40E050E0BA01C8010E94031AC801F2
:103C30000E94FE1C882309F469C061E0C8010E944B
:103C40004118009709F462C0FC01D38620E2DE012E
:103C5000119601900D922A95E1F7FC01A488B58890
:103C6000C28CD38C8EE28983FE013296CE010C96F3
:103C700020E22193E817F907E1F7F801448D558D0B
:103C8000668D778D868197810E949326AB01BC015A
:103C9000F8018681978121E080960E945426009742
:103CA000A9F1BE8AAD8ADC8ECB8E20E2FE01319670
:103CB000DC0101900D922A95E1F72EE22A83F701AB
:103CC000448D558D668D778D7E8B6D8B5C8F4B8F84
:103CD00020E2FE013196DC01909601900D922A952A
:103CE000E1F7F80186819781A0960FB6F894DEBFC0
:103CF0000FBECDBFDF91CF911F910F91FF90EF903D
:103D0000DF90CF90BF90AF900C94B91780E0A09651
:103D10000FB6F894DEBF0FBECDBFDF91CF911F91DC
:103D20000F91FF90EF90DF90CF90BF90AF900895EC
:103D3000BF92CF92DF92EF92FF920F931F93CF9398
:103D4000DF93CDB7DEB7E3970FB6F894DEBF0FBEB3
:103D5000CDBF7C018B015BAB4AABC22E19821A82AC
:103D6000FC018081882311F0D12C5EC0FB01808191
:103D70008077D1F3EAA9FBA980818F32A9F4EAA95F
:103D8000FBA980818F3221F43196FBABEAABF7CFF0
:103D9000F80166817781CE0101960E9490188823F0
:103DA00019F38E010F5F1F4F70E2B72EAE014E5C0C
:103DB0005F4FBE016F5D7F4F8AA99BA90E946F2153
:103DC000882391F2EAA9FBA98081882329F120E0C8
:103DD000AE014F5D5F4FB801C7010E94A123D82EED
:103DE00081110BC0CC2001F1AE014F5D5F4FB801D6
:103DF000C7010E94DC1D8823B9F0F701DE0111968E
:103E00008B2D01900D928A95E1F7C7010E944E1DFE
:103E10008E010F5F1F4FCACFAE014F5D5F4FB801DC
:103E2000C7010E94DC1DD82E8D2DE3960FB6F894A5
:103E3000DEBF0FBECDBFDF91CF911F910F91FF90DD
:103E4000EF90DF90CF90BF9008954F925F926F9266
:103E50007F92AF92BF92CF92DF92EF92FF920F9339
:103E60001F93CF93DF9300D000D0CDB7DEB75C01B6
:103E70006A017B01FC01808183FF1FC0F501828103
:103E800081FF1BC0F501808D918DA28DB38D8417AC
:103E90009507A607B70788F0892B8A2B8B2B09F487
:103EA00068C0F5014088518862887388B701A6010F
:103EB000C5010E94031A811102C080E05BC0F501B8
:103EC00086819781C114D104E104F10471F4448D19
:103ED000558D668D778D0E943328882371F3F50107
:103EE000148E158E168E178E29C0F50144855585C2
:103EF000668577859E012F5F3F4F0E94AB2687FD29
:103F0000DCCF8823D9F049815A816B817C81F5010E
:103F1000868197810E943328882379F2F5014485B0
:103F20005585668577850FEF1FEF2FEF3FE0868180
:103F300097810E942A27882309F4BFCFF501C08EFC
:103F4000D18EE28EF38E828184608283C5010E94CD
:103F5000FE1C882309F4B1CFB701A6014C145D04FF
:103F60006E047F0410F4B301A201C5010E94031A7C
:103F700001C081E00F900F900F900F90DF91CF91D3
:103F80001F910F91FF90EF90DF90CF90BF90AF9077
:103F90007F906F905F904F9008952F923F924F9235
:103FA0005F926F927F928F929F92AF92BF92CF92C9
:103FB000DF92EF92FF920F931F93CF93DF93EC0169
:103FC0005B014A01888183FF0EC08A8181FF0BC09B
:103FD00083FF0FC0488D598D6A8D7B8DCE010E9465
:103FE000031A811106C08981816089838FEF9FEF59
:103FF00003C1A40160E070E088899989AA89BB891E
:1040000080959095A095B09584179507A607B7075A
:1040100050F374011E012CE0220E311C488959898D
:104020006A897B89E114F10409F4C4C08E819F81FF
:104030002A013B0129E076946794579447942A9586
:10404000D1F7DC0113961C9114216A01B1E0DB2247
:10405000111134C0C114D10489F54C855D856E857C
:104060007F85411551056105710569F091010E9437
:10407000AB2687FDB8CF811121C0CE010E94BC17AD
:1040800081111CC0B0CF8C8D9D8DAE8DBF8D0097E2
:10409000A105B10579F4CE010E94BC17882309F46B
:1040A000A2CF8C859D85AE85BF858C8F9D8FAE8F71
:1040B000BF8F04C08C879D87AE87BF874C855D8589
:1040C0006E857F858E819F810E949326AB01BC0106
:1040D000410F511D611D711DEE81FF81C114D1047D
:1040E00021F4E11422E0F206B8F580E092E08C19A8
:1040F0009D0987018E159F0508F48C01C114D10418
:1041000079F4488859886A887B88888D998DAA8D2A
:10411000BB8D481659066A067B0610F025E001C0E3
:1041200021E0CF0180960E945426009709F45BCFCE
:10413000A801B5018C0D9D1D0E949B32C00ED11EA1
:10414000C11482E0D80629F58E819F8180960E9455
:104150000A2681111EC047CF83A194A1A5A1B6A1B3
:1041600084179507A607B70741F410A28FEF9FEFBA
:10417000DC0183A394A3A5A3B6A3EE81FF819501DF
:10418000808191810E94C12C882309F42CCF00E00A
:1041900012E088899989AA89BB89800F911FA11D86
:1041A000B11D888B998BAA8BBB8BA00EB11EE01A18
:1041B000F10A34CF888D998DAA8DBB8D2A81841701
:1041C0009507A607B70728F4488F598F6A8F7B8F0A
:1041D00006C08091D9059091DA05892B11F02460F1
:1041E0002A838A8187FD02C0C40106C0CE010E94D5
:1041F000FE1C8111F9CFF7CEDF91CF911F910F9166
:10420000FF90EF90DF90CF90BF90AF909F908F90F6
:104210007F906F905F904F903F902F900895653002
:1042200040F4FC01E60FF11DE60FF11D8181928142
:1042300008956B3040F4FC01E60FF11DE60FF11D0F
:10424000848195810895613140F4FC01E60FF11DF0
:10425000E60FF11D86819781089580E090E0089532
:10426000FC0190E080E080FB879587F92191820F27
:104270009F5F9B30C1F70895CF93DF93FC01DB0173
:1042800018964D915D916D917C911B97452B462B16
:10429000472B41F416966D917C911797DF91CF9142
:1042A0000C94901880E2EF0119928A95E9F780E169
:1042B000808381E0828316968D919C9117979783D6
:1042C000868318964D915D916D917C911B97448FDB
:1042D000558F668F778F81E0DF91CF910895CF92D0
:1042E000DF92EF92FF920F931F93CF93DF93FB0127
:1042F000DC0101962C912032D9F3B483A383ED0124
:10430000BE016A1B7B0B8991811105C0CD01860F0F
:10431000971FEC0118C08F32C9F38C3511F480E07F
:10432000D0C0982F977F9232D1F38A33C1F3982F60
:104330009F7B9C33A1F392EC980F923080F38052D4
:104340008F35F0F2ECCF1C2F3D2F29912032D9F37D
:104350002F32C9F3EA0118833983EC016115710525
:1043600061F08A918E3211F0803219F46150710936
:10437000F5CF6F3F710509F094F67283618380E099
:1043800090E020E2EF01C80FD91F2E8301968B30F9
:104390009105C1F7ED01CE018A1B9B0B29912E32AD
:1043A000D1F32032C1F351E0009709F050E09B01B6
:1043B0002150310938F407E010E0C12CF12CC8E09D
:1043C000EC2E0FC0ED01C20FD31F48814E3281F792
:1043D000F2CFED01C80FD91F4881403231F450E0CF
:1043E000019686179707ACF343C04E3221F4281785
:1043F0003907A9F704C04232A1F04C3791F0C6ED5D
:10440000C40FC63010F44D3261F4C6ECC40FC63090
:1044100040F0C5EAC40FC33020F0CFEDC40FCE3555
:1044200030F08217930709F150E04FE503C082177F
:104430009307D9F00117D0F1CFE9C40FCA3118F4AE
:104440004052FE2805C0CFEBC40FCA3108F4CE2875
:10445000DD24D394D10EEF01C10FD11D4E8346E070
:104460004D1508F0D5821D2DBBCF0A30C9F450E0A0
:104470008681803209F453CF552339F0CF2011F0D3
:1044800082E001C08F2D808309C081E08083858117
:10449000E80FF11D8EE7868381E3878381E011C0F9
:1044A000C9010AE018E040E1E42E9ACF0A30F9F29F
:1044B00028173907E4F2C9010AE018E050E1E52EB7
:1044C0008ECFDF91CF911F910F91FF90EF90DF90F2
:1044D000CF900895BF92CF92DF92EF92FF920F9309
:1044E0001F93CF93DF93CDB7DEB7A0970FB6F894A5
:1044F000DEBF0FBECDBF8C0119821A82DC018C9108
:1045000083FD02C080E087C0F801828181FFFACF7D
:10451000448D558D668D778D411551056105710569
:1045200049F0D80116968D919C9117970E943328D7
:10453000882341F361E0C8010E9441187C01009783
:1045400009F30E943021D82E85EEF7018083D8012F
:104550001C9216968D919C91179780960E940A2620
:10456000882381F2F8019381992309F454C0B8019A
:10457000CE0101960E943C21882321F2BB24B394F2
:1045800025EEC22EF80183818B1508F4BBCFEB2CEE
:10459000F12CF801448155814E195F0960E070E00B
:1045A00095E0440F551F661F771F9A95D1F7CE01EE
:1045B00001960E94031A882309F4A4CF60E0CE017B
:1045C00001960E94B519FC01009709F49BCF8385E1
:1045D0008F3009F097CF2081822F8F7190E0E816FD
:1045E000F90609F08FCF8585D8128CCFC082D8010B
:1045F0001696ED91FC91179780A1816080A326FF0C
:1046000008C016968D919C91179780960E940A2655
:1046100002C0B394B7CFA0960FB6F894DEBF0FBE1A
:10462000CDBFDF91CF911F910F91FF90EF90DF9061
:10463000CF90BF900895AF92BF92CF92DF92EF924A
:10464000FF920F931F93CF93DF937C01EB01AD801B
:1046500002E010E07EE7B72E6E0186E0C80ED11CA6
:1046600089819A819801280F391FEB81FC81AF0164
:10467000480F591FE417F50779F0C90165E0880F65
:10468000991F6A95E1F7820F931F2191332727FD28
:10469000309528273927EECFE3E0EA1510F453E0F0
:1046A000A52E84E08A0D922F9F70E82FF0E09A30BB
:1046B00010F4905D01C0995CEC0FFD1F968344E0FF
:1046C000369527954A95E1F78150A81660F3FE01CB
:1046D000EA0DF11DB68240E050E0BA01C7010E9428
:1046E000031A61E0C7010E94B519BC01009731F4BB
:1046F00081E0F70191819923C9F017C0FC01808105
:10470000882359F0838583FDECCF4BE050E0C60150
:104710000E948E32892B29F702C081E007C00F5F0B
:104720001F4F0436110509F09BCF80E0DF91CF9138
:104730001F910F91FF90EF90DF90CF90BF90AF90BF
:1047400008952F923F924F925F926F927F928F9235
:104750009F92AF92BF92CF92DF92EF92FF920F9310
:104760001F93CF93DF93CDB7DEB72C970FB6F89496
:10477000DEBF0FBECDBF3C017C876B877A01322E36
:10478000DA0111968D909C901297FB0180818077C1
:1047900011F480E0F5C1D3018C918111FACFFA01B7
:1047A0008081837009F46FC1C4010C966DE070E0E4
:1047B0000E940A3255245394560E40E050E0BA014C
:1047C0008B859C850E94031A1B821C821982412CB6
:1047D00010E000E01A82F7013696FE83ED83AB8588
:1047E000BC8550962D913D914D915C91539765E01C
:1047F00056954795379527956A95D1F7590161E008
:10480000CD012A873F83488759870E94B5196C01DB
:104810002A853F81009739F4EB85FC8581818823C7
:1048200009F486C0B6CFDC018C91853E11F0811170
:104830000AC0111102C02B833C83151508F41F5FB9
:10484000811104C075C0151528F005C0853E19F406
:1048500000E0C5CF10E08E32D9F3F60193859F308A
:1048600009F044C0011108C086FFB9CF082F0F71AD
:1048700025852983402E07C04A948411E9CF858578
:1048800029812813E5CF842D90E00197ADE0A89F02
:104890005001A99FB00C1124A814B904C8F6212C0A
:1048A000622DC6010E940F21A814B90419F4892BA6
:1048B00079F695CF8F3F910509F050F62FEB280F31
:1048C0002A3108F4805E95012F5F3F4FD701139680
:1048D000ED91FC911497EA0DFB1D90814FEB490F70
:1048E0004A3108F4905E8913B3CFD0C093FDB0CFA6
:1048F000002351F0B1E04B124CCFC6010E94302191
:104900002981821346CF11C04BE050E06D817E813A
:10491000C6010E948E32892B09F061CFD7018C919C
:1049200080FF03C021E02A835ACF36FEA4C031CFD6
:1049300034FE2FCF832D83708150823008F029CF31
:10494000112311F0AB80BC80151568F460E08B85F5
:104950009C850E94B519892B09F09FC0EB85FC85C9
:104960008181811116CF151588F48B859C850E9455
:10497000CB17882309F40DCFAB85BC851696ED9136
:10498000FC9117978281823008F489C02A81211115
:1049900088C0A50160E070E025E0440F551F661F48
:1049A000771F2A95D1F78B859C850E94031A88234F
:1049B00009F4EFCE0FEF050D102F8FE0482E5701B1
:1049C00086E0A80EB11C9DE0592E111172C0EB8536
:1049D000FC8580899189A289B38915E0B695A79550
:1049E000979587951A95D1F75C0160E0CF010E94F9
:1049F000B5196C01009709F4CCCE80E2D6011D9266
:104A00008A95E9F7F70136968BE0D60101900D9271
:104A10008A95E1F7F70180818871D6011C968C9305
:104A2000E091D905F091DA05309709F49FC0B601FD
:104A3000625F7F4FC60140960995D60150968D91D1
:104A40009C91519753969C938E93529759969C9311
:104A50008E9358971E968D919C911F9757969C9375
:104A60008E935697AB85BC851696ED91FC91179762
:104A700080A1816080A3232DA5016B857C85C30166
:104A80000E94C71A7DC05524539497CE2394FDE00D
:104A90002F1609F4A4CE590103CF1F5F55CF105F25
:104AA00062CFB7018B859C850E941B23811171CF3A
:104AB00070CE60E08B859C850E94B5196C010097D3
:104AC00009F467CEAB85BC851696ED91FC911797DE
:104AD00080A1816080A3212F101301C02064F60102
:104AE000208343861486C5012A870E943021D6017F
:104AF0001D968C931D975B961C921E925A97F701F8
:104B0000438154812A852F7130E021503109529E12
:104B1000C001539E900D1124F60160E0881599059F
:104B200040F4DA01A80FB91F2C91332727FD3095E7
:104B30000AC021E030E08815990511F420E030E04A
:104B4000319521953109653018F43283218307C0EE
:104B50006B3018F43583248302C0378326836F5F5C
:104B6000019632966D30D1F611502FCF81E298E246
:104B7000F601918B808B80E098E0978786875DCFE8
:104B80002C960FB6F894DEBF0FBECDBFDF91CF914C
:104B90001F910F91FF90EF90DF90CF90BF90AF905B
:104BA0009F908F907F906F905F904F903F902F904D
:104BB00008956115710581F0DB010D900020E9F782
:104BC000AD0141505109461B570BDC01ED91FC91A1
:104BD0000280F381E02D099480E090E00895CF9366
:104BE000DF93EB01FC012081211102C080E00FC0A6
:104BF000207621F08FE28883198208C060E00E944D
:104C00004118009799F3BE010E94621881E0DF917C
:104C1000CF910895BF92CF92DF92EF92FF920F93C0
:104C20001F93CF93DF93EC01888180FF30C08E010A
:104C3000095F1F4F4B815C816D817E81E981FA8123
:104C40009801808191810E94C12CB82E811102C0EF
:104C5000B12C1FC0888181FD04C088818E7F88832C
:104C600018C0E981FA814485558566857785CB80B2
:104C7000DC80ED80FE804C0D5D1D6E1D7F1D98015A
:104C8000808191810E94C12C8111E7CFE1CFBB24AB
:104C9000B3948B2DDF91CF911F910F91FF90EF90E7
:104CA000DF90CF90BF900895CF92DF92EF92FF9266
:104CB0001F93CF93DF93EC016A017B01122F4B818D
:104CC0005C816D817E814C155D056E057F05E9F087
:104CD0000E940A26811103C080E090E01CC012FFF0
:104CE00006C01882CB82DC82ED82FE820EC0E98192
:104CF000FA819E01295F3F4FB701A6018081918112
:104D00000E94AA2B8111EDCFE7CF13708881812BF0
:104D10008883CE010796DF91CF911F91FF90EF908E
:104D2000DF90CF9008954250510961097109FC014B
:104D3000048004C0440F551F661F771F0A94D2F7E2
:104D400080899189A289B389480F591F6A1F7B1FE7
:104D5000CB01BA010895CF92DF92EF92FF920F93A9
:104D60001F93CF93DF93EC016A017B0189014230ED
:104D700051056105710510F48FEF63C0888D998D21
:104D8000AA8DBB8D84179507A607B707A8F38D8159
:104D9000803241F5E7E07695679557954795EA9516
:104DA000D1F78C899D89AE89BF89480F591F6A1F29
:104DB0007B1F22E0CE0180960E9454260097E1F2EC
:104DC000E894C7F8DD24EE24FF24F601EE0FFF1F60
:104DD000EE0FFF1FE80FF91F80819181A281B3813F
:104DE000BF701EC0803141F64C895D896E897F8914
:104DF0004D0D511D611D711D22E0CE0180960E9456
:104E00005426009709F4B8CFDD24EE24FF24F601E0
:104E1000EE0FFF1FE80FF91F80819181A0E0B0E045
:104E2000488D598D6A8D7B8D481759076A077B0716
:104E300038F0F80180839183A283B38381E001C0BD
:104E400080E0DF91CF911F910F91FF90EF90DF9065
:104E5000CF9008958F929F92AF92BF92CF92DF92A0
:104E6000EF92FF920F931F936A017B014801590152
:104E70004230510561057105B8F1FC01408D518D3D
:104E8000628D738D4C155D056E057F0568F125817A
:104E9000203241F5B701A60117E076956795579541
:104EA00047951A95D1F70489158926893789400FC6
:104EB000511F621F731F23E080960E9454260097A3
:104EC00099F0E894C7F8DD24EE24FF24F601EE0FF4
:104ED000FF1FEE0FFF1FE80FF91F80829182A28251
:104EE000B3821DC0203111F080E01AC0FC0144895A
:104EF0005589668977894D0D511D611D711D23E00E
:104F000080960E945426009779F3DD24EE24FF2436
:104F1000F601EE0FFF1FE80FF91F9182808281E0FA
:104F20001F910F91FF90EF90DF90CF90BF90AF90C7
:104F30009F908F9008953F924F925F926F927F92D1
:104F40008F929F92AF92BF92CF92DF92EF92FF9299
:104F50000F931F93CF93DF9300D000D0CDB7DEB770
:104F60005C012A013B014901FC01C084D184E28437
:104F7000F384C416D506E606F70650F56A017B01F0
:104F800010E011C0C414D504E604F704F1F19E0149
:104F90002F5F3F4FB701A601C5010E94AB2687FDD9
:104FA00034C0811117C0FFEFCF1ADF0AEF0AFF0AE2
:104FB000F501808D918DA28DB38D8C159D05AE056B
:104FC000BF0500F7111121C0C084D184E284F384AD
:104FD00011E0E9CF89819A81AB81BC81892B8A2B31
:104FE0008B2B09F7112329F0F501C086D186E286C3
:104FF000F3860FEF1FEF2FEF3FE0B701A601C501CA
:105000000E942A27382E811102C0312C15C041146C
:1050100051046104710431F4F401C082D182E2824E
:10502000F3820AC097018601B301A201C5010E9463
:105030002A278111F1CFE9CF832D0F900F900F9088
:105040000F90DF91CF911F910F91FF90EF90DF9024
:10505000CF90BF90AF909F908F907F906F905F9018
:105060004F903F9008959F92AF92BF92CF92DF9260
:10507000EF92FF920F931F93CF93DF9300D000D056
:10508000CDB7DEB75C016A017B019E012F5F3F4F08
:10509000B701A601C5010E94AB26982E87FF02C06A
:1050A00080E024C000E010E09801B701A601C5012E
:1050B0000E942A278823A1F3F50140855185628546
:1050C00073854C155D056E057F0550F0F1E0CF1A34
:1050D000D108E108F108F501C086D186E286F386A1
:1050E000C980DA80EB80FC809110CFCF0F900F90B9
:1050F0000F900F90DF91CF911F910F91FF90EF9044
:10510000DF90CF90BF90AF909F900895CF92DF92A5
:10511000EF92FF920F931F93CF93DF93EC01162F23
:105120001D8281E090E0A0E0B0E088879987AA879F
:10513000BB87DAA3C9A318A28FEF9FEFDC018BA373
:105140009CA3ADA3BEA3662321F1653008F0BFC0C8
:1051500020E040E050E0BA01CE0180960E94542643
:10516000009709F4B4C0FC0100E1109FE00DF11DAF
:105170001124E255FE4F80818F7709F0A8C0C084CA
:10518000D184E284F384C114D104E104F10421F454
:105190009EC0C12CD12C760120E0B701A601CE0122
:1051A00080960E945426FC01009709F490C08385E4
:1051B00094858115924009F08AC08089823009F077
:1051C00086C086859785892B09F481C035853A8309
:1051D0008FEF830F8B831C8289E090E021E03217F0
:1051E00041F0019709F473C0220F4C814F5F4C834B
:1051F000F6CF468957894115510519F060E070E0F6
:1052000004C044A155A166A177A14C875D876E8734
:105210007F878685978597018601080F191F211DB5
:10522000311D0C8B1D8B2E8B3F8B818992899F8327
:105230008E83440F551F661F771F400F511F621F3B
:10524000731F4C8F5D8F6E8F7F8FB5E0880F991F16
:10525000BA95E1F781509E4F892F99278695480F7F
:10526000591F611D711D488B598B6A8B7B8B8389FC
:105270009489009719F0A0E0B0E004C080A191A14A
:10528000A2A1B3A197018601041B150B260B370BB6
:10529000B901A801480F591F6A1F7B1F0C8004C069
:1052A00076956795579547950A94D2F7DB01CA0121
:1052B0000196A11DB11D888F998FAA8FBB8F453F85
:1052C0001FE051076105710520F48CE08D8380E0BB
:1052D00012C0453F5F4F6105710510F480E109C0C0
:1052E00084A595A5A6A5B7A58C8F9D8FAE8FBF8FE2
:1052F00080E28D8381E0DF91CF911F910F91FF902C
:10530000EF90DF90CF9008958FEF8EBD0DB407FE24
:10531000FDCF8EB508958EBD0DB407FEFDCF089567
:10532000CF93DF93EC018B81811125C0E981FA8154
:10533000308121818091D705882399F09FB7F89417
:105340008091D705813059F48DB38093D5054DB345
:105350008091D605809584238DBB9FBF02C090931A
:10536000D5053CBD2DBDE981FA8160E082810E94B6
:105370001D2F81E08B83DF91CF910895CF93DF9331
:10538000EC018B818823D1F0E981FA8161E082818F
:105390000E941D2F8FEF0E948B298091D7058823B3
:1053A00061F09FB7F8942091D7058091D505213001
:1053B00019F48DBB9FBF01C08FBF1B82DF91CF91BE
:1053C0000895CF92DF92EF92FF920F931F93CF93A6
:1053D000DF93EC018B017A010E94292E6B010E9460
:1053E00084298C838F3F49F40E94292E6C197D09F2
:1053F000693E7340A0F385E503C08E3F39F080E538
:105400008883CE010E94BE2980E025C0E114F1040A
:10541000E1F081E0E81AF1088FEF8EBDF8012FEF7F
:10542000CF01801B910B8E159F0538F40DB407FE3C
:10543000FDCF8EB52EBD8193F3CF0DB407FEFDCF0A
:105440008EB5F801EE0DFF1D80831C820E94842919
:105450000E94842981E0DF91CF911F910F91FF90ED
:10546000EF90DF90CF9008950F931F93CF93DF932A
:10547000EB010E94292E8B010E9484298F3F49F065
:105480000E94292E601B710BC617D707A8F780E072
:1054900001C081E0DF91CF911F910F910895FF929C
:1054A0000F931F93CF93DF9300D000D0CDB7DEB71B
:1054B0008C01F62E29833A834B835C83FC01838124
:1054C000811103C0C8010E949029FF2029F06CE2DD
:1054D00071E0C8010E94342A8F2D80640E948B29BC
:1054E0008C810E948B298B810E948B298A810E944A
:1054F0008B2989810E948B29F11002C085E901C0A6
:1055000087E80E948B290E9484298BE0F82E0E9454
:105510008429F801848387FF02C0FA94C1F70F90B1
:105520000F900F900F90DF91CF911F910F91FF90EF
:105530000895CF92DF92EF92FF921F93CF93DF9364
:10554000EC01162F69017A0120E030E0A90167E340
:105550000E944F2AA7019601612FCE01DF91CF91C2
:105560001F91FF90EF90DF90CF900C944F2A4F92B5
:105570005F926F927F928F929F92AF92BF92CF92E3
:10558000DF92EF92FF920F931F93CF93DF931F92BF
:10559000CDB7DEB72C013901DC0113961C921397AD
:1055A0001C9215961C92159712967C936E931197E8
:1055B00049830E94292E4B015C01F2010181128175
:1055C0004981D80112964C9361E0842F0E94E42E09
:1055D00061E0F80182810E941D2F0E946F17D201A5
:1055E0001196ED91FC91129782E580831182C201A0
:1055F0000E949029D2011196ED91FC91129761E0E1
:1056000082810E941D2F1AE08FEF0E948B2911507A
:10561000D9F7D2011196ED91FC91129760E0828149
:105620000E941D2F2AE0F22E20E030E0A90160E068
:10563000C2010E944F2A182F813089F0FA9421F478
:1056400080E2F201808370C08DEF0E948B2908E018
:1056500012E00E94842901501109D9F7E5CF2AEA06
:1056600031E040E050E068E0C2010E944F2A8530FE
:1056700021F4D20115961C930EC014E00E948429D7
:10568000F20184831150D1F78A3A19F482E08583BC
:1056900002C085E22CC0F2018581823031F4C12C38
:1056A000D12CE12C90E4F92E03C0C12CD12C760131
:1056B000A701960169E2C2010E94992A882349F054
:1056C0000E94292E68197909613D774088F383E4A7
:1056D0000EC0F20185818230D9F420E030E0A901CA
:1056E0006AE3C2010E944F2A882321F087E3D20196
:1056F0008C931AC00E948429807C803C19F483E03A
:10570000F20185830E9484290E9484290E948429B1
:10571000C2010E94BE29D2011196ED91FC9112970F
:105720006082718281E004C0C2010E94BE2980E0D3
:105730000F90DF91CF911F910F91FF90EF90DF902D
:10574000CF90BF90AF909F908F907F906F905F9021
:105750004F9008950F931F93CF93DF93EC0189012E
:105760008D81833039F039E0440F551F661F771F54
:105770003A95D1F79A01AB0161E1CE010E944F2A1F
:10578000882319F080E388830DC040E052E0B8011F
:10579000CE010E94E129182F882321F0CE010E941A
:1057A000BE2904C0CE010E94BE2910E0812FDF91E6
:1057B000CF911F910F9108950F931F93CF93DF9374
:1057C000EC018A0120E030E0A9010E944F2A8823E1
:1057D00019F083E588830DC040E150E0B801CE01A7
:1057E0000E94E129182F882321F0CE010E94BE29B2
:1057F00004C0CE010E94BE2910E0812FDF91CF911D
:105800001F910F910895CF93DF93CDB7DEB76097C7
:105810000FB6F894DEBF0FBECDBFAE014F5F5F4F36
:1058200069E00E94DC2B882309F462C08981807CB6
:1058300071F54F81437050E0542F4427550F550F99
:10584000888524E0829FC0011124482B592B89852B
:105850008295869586958370482B4F5F5F4F60E0F9
:1058600070E02A852370220F8B8587FB882780F9BB
:10587000282B8E818F7090E0820F911D079704C0B6
:10588000440F551F661F771F8A95D2F72DC08034AD
:1058900041F54A8550E060E070E04F5F5F4F6F4F29
:1058A0007F4F898590E0A0E0B0E0BA2FA92F982F14
:1058B0008827480F591F6A1F7B1F88858F7390E0C8
:1058C000A0E0B0E0DC0199278827480F591F6A1F24
:1058D0007B1FAAE0440F551F661F771FAA95D1F7BB
:1058E00003C040E050E0BA01342F252FCB0104C0A3
:1058F00030E020E080E090E0632F722F60960FB6DA
:10590000F894DEBF0FBECDBFDF91CF9108950F9306
:105910001F93CF93DF93EC01862F8A010E948B297E
:10592000F80180818EBD818122E030E00DB407FE58
:10593000FDCF8EBD2115F2E03F0739F0F801E20FEF
:10594000F31F80812F5F3F4FF1CF0DB407FEFDCFD6
:105950008FEF0E948B298FEF0E948B290E94842950
:105960008C838F71853039F087E58883CE010E9462
:10597000BE2980E001C081E0DF91CF911F910F919E
:1059800008950F931F93CF93DF93EC0189018D81CD
:10599000833039F039E0440F551F661F771F3A9561
:1059A000D1F79A01AB0168E1CE010E944F2A88230A
:1059B00011F082E323C0A8016EEFCE010E94872C74
:1059C0008823E9F060ED77E0CE010E94342A182F99
:1059D000811102C08AE512C020E030E0A9016DE02B
:1059E000CE010E944F2A811108C00E948429811192
:1059F00004C0CE010E94BE2906C089E28883CE0180
:105A00000E94BE2910E0812FDF91CF911F910F914D
:105A10000895FC014FB7F8942281338184819581E8
:105A2000281B390B4FBF37FF05C086819781820F36
:105A3000931F0895C9010895FC01848195812281F5
:105A4000338128173907B9F09C012F5F3F4FA081A0
:105A5000B181A80FB91F8C91DB018C93868197814E
:105A60002817390718F080E090E001C0C90195833C
:105A7000848381E0089580E00895EF92FF920F9370
:105A80001F93CF93DF938C01CB01F894F801C2816F
:105A9000D3817894F801E480F580CE15DF0518F401
:105AA000C681D78103C0EC16FD06E8F4CE19DF09E4
:105AB0004C175D0708F4EA01F801608171816E0DF1
:105AC0007F1DAE010E949B32EC0EFD1EF801868107
:105AD0009781E816F90610F0E81AF90AF801F5823C
